:1000000091C00000D2C00000D0C00000CEC00000EF
:10001000CCC00000CAC00000C8C00000C6C00000BC
:10002000C4C00000C2C00000C0C000000C9473082F
:10003000BCC00000BAC00000B8C00000B6C00000DC
:10004000B4C00000B2C00000B0C00000AEC00000EC
:10005000ACC00000AAC00000A8C00000A6C00000FC
:1000600025C100008DC20000A0C000009EC000009D
:100070009CC000009AC0000098C0000096C000001C
:1000800094C00000FFC5000087C600000801060CF0
:100090000018233534472566455926573488587744
:1000A000566B27383499276645AA6AAA37999988E2
:1000B000677B2839347A256645BB2B793488587795
:1000C00056CC7CCC38CC7C9945BBBBBB7BAAAA99CF
:1000D000788F293A344B256645CC29573488587790
:1000E00056DD2D8D34BB296645AA6AAA37999988B1
:1000F00067EE8EEE39EE8EAA45EE8EEE39BB8B772B
:1001000056DDDDDD8DDDDDDD49CCCCCCCCBBBBAA45
:10011000890083015C0227038404ED046B06190740
:1001200036095F0A11241FBECFEFD0E4DEBFCDBF7A
:10013000099A0A9A0F9A229A539A549AECECF0E090
:100140001182108283EC8093CA0088E18093C900F9
:100150001182108260E080E4B5D460E080E6B2D421
:1001600011E0A0E0B1E0E6E1F8E100E00BBF02C081
:1001700007900D92A036B107D9F722E0A0E6B1E0D2
:1001800001C01D92A037B207E1F710E0C2E9D0E04C
:1001900004C02197FE010E94A00AC938D107C9F7FF
:1001A000119A789410D40C94090C2ACF28E230E0EC
:1001B000FC0135832483EAE7F0E089E8808380E668
:1001C00080937C008081806480830895CF93DF9347
:1001D000EC012091790030E01F822A30310578F45B
:1001E00080E3FE01369782878387809179004AE019
:1001F000BE016A5F7F4F90E00E94D60B18C0243684
:10020000310560F480E38C83809179004AE0BE017F
:100210006B5F7F4F90E00E94D60B09C08091790000
:100220004AE0BE016C5F7F4F90E00E94D60B809148
:10023000790090E09A878987DF91CF910895CF93D5
:10024000DF93EC012091790030E01D862A303105E2
:1002500068F480E38A878B87809179004AE0BE0149
:10026000645F7F4F90E00E94D60B18C024363105A2
:1002700060F480E38A87809179004AE0BE01655F7F
:100280007F4F90E00E94D60B09C0809179004AE030
:10029000BE01665F7F4F90E00E94D60B809179008F
:1002A00090E0988B8F87DF91CF9108951F920F92E6
:1002B0000FB60F9211240BB60F922F933F934F93CB
:1002C0005F936F937F938F939F93AF93BF93EF93BE
:1002D000FF9386E691E00E94290AFF91EF91BF917A
:1002E000AF919F918F917F916F915F914F913F91CE
:1002F0002F910F900BBE0F900FBE0F901F9018956F
:100300008AE691E00895CF93DF9382E691E0F9D7F2
:10031000C0E6D1E08CE091E09983888388E691E0A3
:10032000F0D782E191E0998388838AE191E09F830D
:100330008E8318A21F8E88E290E09D838C83CE016D
:1003400054D5DF91CF910895CF92DF92EF92FF9233
:100350000F931F93CF93DF938C0188E290E0D80135
:1003600015969C938E93149761E08CE891D3D82FC7
:10037000F801C2A5C827982F987B983B51F5C0DF9C
:10038000BC0180E496D20F2EF9E7CF2ED12CF02DB0
:10039000D6018C91F801668177810F2EFEE4FF2E45
:1003A000F02DF89EC001112487569A4E63D4D601D1
:1003B0008C91D8011696ED91FC911797EE0FFF1FC7
:1003C000E00FF11FF89EC001112487569A4E90AF9E
:1003D00087ABCC2309F461C0F801D2A7C0FF1FC0CE
:1003E000D0FF1DC083A5811110C085A596A52FD76C
:1003F000D8019F968D919C91D0972ED7F80181A915
:1004000092A92FD784EAA7D602C080E0A4D6D8014B
:100410009B969C919B9781E089279B968C93C6FF26
:1004200014C0D6FF12C0D9D0D5D06C01E12CF12C6C
:10043000B701F601819191916F011CD4FFEFEF1A82
:10044000FF0A84E0E816F10499F7C2FF13C0D2FF57
:1004500011C0D80116968D919C9117970196843002
:10046000910529F017969C938E93169703C0F80177
:1004700017821682C1FF11C0D1FF0FC0ABD0F801A7
:10048000F796DC019801215C3F4F819191918D930A
:100490009D93E217F307C9F7C6D0DF91CF911F9163
:1004A0000F91FF90EF90DF90CF90089589E891E051
:1004B00008958AE991E00895CF93DF9383E891E06E
:1004C00020D7C1E8D1E080E291E0998388831F8240
:1004D0001E828BE090E09EA78DA788E390E098AB0A
:1004E0008FA78CE390E09AAB89AB8BE090E0AFD61E
:1004F0008FA598A9B1D689A99AA9B3D680EA90E028
:1005000025D61CAA1BAA1BA6EAE9F1E0A9E8B1E0DE
:100510002AEA31E080E281938D93E217F307D9F75D
:10052000C1E8D1E085E08CA788E290E09D838C83D0
:1005300061E08CE8ADD28AA7CE0157D44ED0DF91CE
:10054000CF91089508950C94A90A0895FC01F99992
:1005500016C08681882399F081B592B5019692BD27
:1005600081BDA481B581CD010196958384838C9151
:1005700080BDFA9AF99A868181508683FB9A089504
:100580001F920F920FB60F9211240BB60F922F935A
:100590003F934F935F936F937F938F939F93AF930B
:1005A000BF93EF93FF93FB9880EC91E052D7FF91BC
:1005B000EF91BF91AF919F918F917F916F915F91DB
:1005C0004F913F912F910F900BBE0F900FBE0F9048
:1005D0001F9018958DEC91E00895F99922C0E0ECF8
:1005E000F1E087EC91E0958384838FEF9FE092BDEB
:1005F00081BD8DE0868381B592B5019692BD81BDA6
:10060000F89AA481B581CD0101969583848380B544
:100610008C9386819FEF980F96838111ECCF81E0B8
:10062000089580E00895F99910C0E0ECF1E087ECBE
:1006300091E0958384838EE086838FEF9FE092BD67
:1006400081BDCF0133D781E0089580E0089582EC29
:1006500091E057D686E291E09093C1018093C0016A
:10066000F99920C0E0ECF1E087EC91E09583848378
:100670008FEF9FE092BD81BD8DE0868381B592B5FD
:10068000019692BD81BDF89AA481B581CD010196F4
:100690009583848380B58C9386819FEF980F968392
:1006A0008111ECCF0895CF93DF93FC0123852111B5
:1006B00002C0128626C0EC0180E0D4D18823F4F079
:1006C0006C85623030F060E08B85BED181E08C8734
:1006D00002C08B85B9D18D85813041F4EE85FF85CF
:1006E000CF0101969F878E87E08107C0EE85FF8549
:1006F000CF0101969F878E87E491EB87CE01069606
:10070000D5D6DF91CF910895CF93DF93EC018A8501
:10071000873051F482E08A8782E090E09D838C8369
:1007200060E080E391D13FC0CE0166D360E080E31A
:1007300080D188E76DD160E080E37BD182E368D12E
:1007400060E080E276D182E363D160E088E27CD130
:1007500082E35ED160E080E477D182E359D161E049
:1007600085EA72D182E354D160E080E46DD182E306
:100770004FD181E077D191E0853A09F490E0992357
:1007800011F09A8710C082E08A878EEF8D871C86D1
:100790008DE890E09F878E87ECE8F0E0E491EB87AE
:1007A000CE01069683D6DF91CF910895DC0117968E
:1007B0002C9117971596ED91FC91169714968C91A4
:1007C00014979091E70191112CC0ADEDB1E092E04A
:1007D0001A969C931A971D962C931D971F96FC931F
:1007E000EE931E97982F90951C969C93923010F044
:1007F000806811C0213041F4CF0101969093EC0143
:100800008093EB01808107C0CF0101969093EC01AA
:100810008093EB0184918093E80183EE91E046C6DA
:100820000895CD0143C608950F931F93CF93DF938F
:10083000FC012581211102C0148236C0EC0180E048
:1008400011D188237CF16E81623058F060E08E0116
:1008500006501109F8018385F7D081E0F8018487FB
:1008600002C08D81F1D08F81813071F4DE01169745
:100870001E96ED91FC911F97CF0101961F969C93B8
:100880008E931E97E0810DC0DE0116971E96ED91A6
:10089000FC911F97CF0101961F969C938E931E97F4
:1008A000E491ED83CE0102D6DF91CF911F910F919C
:1008B00008959091E70191111DC0EDEDF1E092E0F6
:1008C000928791E0958777876687982F9095948790
:1008D000923010F0806808C0CB0101969093EC0133
:1008E0008093EB01FB0180818093E80183EE91E02E
:1008F000DDC50895E5EDF1E084837683658381E0CD
:100900008783CF01D3C50895CF93DF938FED91E017
:10091000F8D4CDEDD1E08CE091E09983888385EE29
:1009200091E0EFD48CE291E09983888384E391E0B5
:100930009F838E8387E08A8787E090E09D838C8306
:10094000CE0153D287ED91E0DCD48AE391E090931D
:10095000D6018093D501DF91CF910895811105C013
:1009600080910601909107010895E82FF0E0F59538
:10097000E795EF56FF4FE49180FF0BC08E2F90E07C
:10098000959587959595879595958795959587954F
:1009900003C0EF708E2F90E09093070180930601C3
:1009A0000895CF93DF93EC01CED380FF07C00A9A5E
:1009B000129A80E0D0D381E08C8302C0CE0176D53C
:1009C000DF91CF9108958CEE9AE334D18AE090E0E4
:1009D00014D18DEE91E06FD5FFCF8FEE91E091D4E1
:1009E000EDEEF1E080E491E091838083148208953C
:1009F000E8ECF0E0908195FFFDCF8093CE00E8EC2D
:100A0000F0E080818823ECF78091CE00089508956E
:100A1000CF93882321F0C82FFADFC150E9F7CF9197
:100A20000895282F022E2EEF0694221FE8F3822F1E
:100A300008952A989FEF97B9660F660F862B88B99D
:100A4000179AE5DF17980895CF93DF93C82FD62F15
:100A5000807FEFDF6D2F8C2F8295807FEADFDF9123
:100A6000CF910895CF932A989FE097B98260880F1D
:100A7000880F88B9179ACBDF1798C6B1179AC7DFC6
:100A8000179886B182958F70C07F8C2BCF91089577
:100A9000CF93DF93CAECD0E098819E7F98832A9809
:100AA0009FEF97B988B92A9A862FB2DF8881816033
:100AB00088832A9888B1837F88B980E099DFDF91A5
:100AC000CF9108952A989FEF97B988B92A9A862FCF
:100AD0008FDF2A980895CF936091F301C62FCF71CD
:100AE00087709FDF682F6C2B6093F30180E4EADF4F
:100AF000CF91089587786091F2016877682B6093B1
:100B0000F20180E6DFCF0895FC0180859185019692
:100B1000918780872285222309F440C0883E934034
:100B200081F584819581DC01AA0FBB1FAD5FBD4FAC
:100B30002D913C91468157812417350748F4880F41
:100B4000991FDC01AD5FBD4F2F5F3F4F2D933C934D
:100B500084819581DC01AA0FBB1FAD5FBD4F2D9134
:100B60003C91468157814217530748F4880F991FDB
:100B7000DC01AD5FBD4F215031092D933C931186AF
:100B80001086A481B58186819781AA0FBB1FAD5FB6
:100B9000BD4F8D939C93892B09F012860895CF93B6
:100BA000DF93EC018C8991E0980F892F87708C8BF3
:100BB00092DF9C89E92FF0E03296EE0FFF1FEC0FD9
:100BC000FD1F80819181009751F090939B0080934D
:100BD0009A00E0E9F0E08081806280830BC080E0D1
:100BE00096E390939B0080939A00E0E9F0E0808187
:100BF0008F7D8083DF91CF9108950F931F93CF93C3
:100C0000DF9320E931E0829F8001839F100D929F46
:100C1000100D11241016110644F4C0E0D0E08FEF3F
:100C2000F7DE2196C017D107D1F7DF91CF911F9141
:100C30000F910895CF93DF93CFEFD1E09B878A8701
:100C400020E43FE13D832C8328E93AE33F832E8370
:100C500088589341998788878AE090E0CEDF1F8289
:100C60001E821D821C82198618861B861A86DF91B9
:100C7000CF910895FB01EE0FFF1FED5FFD4F9183B4
:100C8000808308951F920F920FB60F9211240BB616
:100C90000F922F933F934F935F936F937F938F9315
:100CA0009F93AF93BF93EF93FF938FEF91E0D1D3D7
:100CB000FF91EF91BF91AF919F918F917F916F9134
:100CC0005F914F913F912F910F900BBE0F900FBEF0
:100CD0000F901F90189581E092E013D3EFEFF1E0B1
:100CE00086E491E091838083279A80E096E3909355
:100CF0009B0080939A00A1E7B0E08C9184608C9374
:100D00001782168215821482148A1386128611861F
:100D100010861786168615861486138A128A118AFB
:100D2000108A86EF91E0EDD2E4EFF1E08CE491E0FF
:100D30009183808312860895CF93DF93EC016885B9
:100D400079856115710519F06E5F7F4F02C060E013
:100D500070E0CE010496E2D20097C9F0029799871D
:100D600088870097B1F0FC01848195810197958374
:100D70008483892B49F488859985DC01ED91FC9168
:100D80000190F081E02D0995CE0190D302C0198623
:100D90001886DF91CF9108951F920F920FB60F9290
:100DA00011240BB60F922F933F934F935F936F9342
:100DB0007F938F939F93AF93BF93EF93FF9386E1BE
:100DC00092E047D3FF91EF91BF91AF919F918F91A7
:100DD0007F916F915F914F913F912F910F900BBE3B
:100DE0000F900FBE0F901F901895BC016E5F7F4F44
:100DF0008AE192E0B1C20895CF93DF93EC01BC0188
:100E00006E5F7F4F8AE192E0D0D2009779F09C012B
:100E10002250310959F080911E0290911F02C8178B
:100E2000D90721F430931F0220931E02DF91CF9146
:100E30000895CF93DF9388E192E063D2C6E1D2E0D8
:100E400082E591E0998388838AE192E05ED21986F7
:100E5000188683E08093900089E18093910080E080
:100E60009CE69093990080939800E1E7F0E0808100
:100E700081608083DF91CF910895EF92FF920F936D
:100E80001F93CF93DF937C018B0150E0FA013197E0
:100E9000E60FF71F9C01ADECBCEC2FD3EC01D6950F
:100EA000C795D695C795D695C7959E01220F331F36
:100EB000CE01880F991F880F991F880F991F820FE5
:100EC000931F9701281B390BC901805D8083425015
:100ED00051093AF178012097F1F09E01ADECBCEC9C
:100EE0000CD3AC0156954795569547955695479521
:100EF0009A01220F331FCA01880F991F880F991F6B
:100F0000880F991F820F931F9E01281B390B90E3B6
:100F1000920FEA0101C090E231979083EE15FF0530
:100F2000D1F6CD2B19F08AE2F8018083DF91CF91C1
:100F30001F910F91FF90EF900895CF92DF92EF9263
:100F4000FF920F931F93CF93DF93EC01AFDA8C01E5
:100F5000B0DA6EE18CEC9CDD88A700DD08977C019F
:100F60006EE18CEA95DD89A781E090E0ECDA6C0116
:100F7000FC01108689A555DDF60120E030E0682FE0
:100F800070E0AB01022E02C0559547950A94E2F736
:100F900040FD02C090E301C091E391932F5F3F4F6A
:100FA0002830310571F7B60180E083DC6AA17BA1AE
:100FB00082E3869F9001879F300D11244CA158A198
:100FC0008C8D9D8D8E0D9F1D281739070CF4C9013E
:100FD000319521953109821793070CF4C9019D8F32
:100FE0008C8F2E8D3F8DF701E21BF30B9F01FF8E3F
:100FF000EE8E5E9DF0015F9DF00D112477276AD281
:10100000E60FF71F429F6001439FD00C1124CE0EC4
:10101000DF1E88A506DDF8013896D80120E030E013
:10102000682F70E0AB01022E02C0559547950A94D7
:10103000E2F740FD02C09EE201C09AE292932F5F68
:101040003F4FEA17FB0771F7FF203CF4F194E1945E
:10105000F1088DE2F801818703C08BE2F8018187F6
:1010600041E0B801665F7F4FC70107DFDD2044F430
:10107000882799278C199D092DE2F801238704C040
:101080008BE2F8018387C601B801645F7F4F44E0BB
:10109000F4DE68897989CB018C199D099601260FA8
:1010A000371F2F3F310519F014F02FEF30E08F3F3D
:1010B000910519F014F08FEF90E06901332314F4D7
:1010C000C12CD12CC092B300992314F480E090E09D
:1010D0008093B400DF91CF911F910F91FF90EF901B
:1010E000DF90CF9008951F920F920FB60F921124A8
:1010F0000BB60F922F933F934F935F936F937F9312
:101100008F939F93AF93BF93EF93FF9386B5809395
:101110003202809184008093310283E392E099D17E
:10112000FF91EF91BF91AF919F918F917F916F91BF
:101130005F914F913F912F910F900BBE0F900FBE7B
:101140000F901F90189580915C020895909346022D
:10115000809345020895CF93C82F811106C083E084
:101160008093B00080E8C6DC07C083708468C2DC6E
:10117000C07FC360C093B000CF910895CF93DF9339
:10118000EC018885882381F010922C0210922B02AA
:1011900010922E0210922D0286B58093300280911B
:1011A000840080932F0218861F8289859A858A3051
:1011B000910560F480E38C838D83809179004AE00F
:1011C000BE016A5F7F4F90E0F1D216C08436910570
:1011D00058F480E38C83809179004AE0BE016B5F14
:1011E0007F4F90E0E3D208C0809179004AE0BE01D1
:1011F0006C5F7F4F90E0DAD2BE016C5F7F4F80E082
:1012000058DB56B54091840020912B0230912C027E
:1012100080912D0290912E02280F391F250F311D2C
:10122000240F311D80913002281B310980912F023B
:10123000281B310989859A852817390718F4CE01AA
:1012400035D102C080E087DFDF91CF910895909380
:10125000540280935302089590935602809355024E
:10126000089590935802809357020895CF93DF9387
:1012700085E392E046D0C3E3D2E088E591E099832C
:1012800088831F8A1E8A1D8A1C8A1B8E1A8E198EBD
:10129000188E1F8E1E8E1D8E1C8E579A569AE0EB4E
:1012A000F0E093E0908387E08093B1008093810029
:1012B00085BDA6EBB0E08C918F7D8C93908380E808
:1012C00019DC80E88093B4008093B3001FA21EA2B3
:1012D000E0E7F0E080818160808385E590E0998B94
:1012E000888B85E090E09B8B8A8B82E292E009D02C
:1012F0008EE591E09093210280932002DF91CF91BF
:101300000895FC01918380830895CF93DF93EC01CE
:10131000F8DFDB83CA83DF91CF91089561157105F2
:1013200009F4BC01FB01208131812817390719F428
:1013300080E090E00895822F932F0895FC01808132
:101340009181E817F90711F473836283DB018D93B0
:101350009C93718360830895DC011296ED91FC915A
:1013600013977183608313967C936E931297FB019E
:10137000918380830895DC01ED91FC9111978E1784
:101380009F0779F08081918111969C938E938A17A3
:101390009B0721F413969C938E931297F183E0831D
:1013A00002C0E0E0F0E0CF010895CF93DF93AC01FD
:1013B000FC0117C02617370799F4DF01EC012A81D9
:1013C0003B812617370711F4FB83EA83EB01888101
:1013D00099818D939C93798368838E2F9F2F08C06A
:1013E000F901208131814217530721F780E090E015
:1013F000DF91CF9108950F931F93CF93DF93EC016B
:101400008B0183DF1D830C831E82DF91CF911F919F
:101410000F910895FC012681222331F06E5F7F4FEA
:1014200085E692E08BCF08956E5F7F4F95CF08954C
:10143000CF93DF93EC0181E08E83CE019CDF009798
:1014400011F0029702C080E090E01E82DF91CF9100
:1014500008950F931F93CF93DF93BC018EE592E025
:10146000D9DF80915D0281111CC081E080935D0213
:101470007894CEE5D2E08E01CE01DADF009749F014
:10148000DC01ED91FC910190F081E02D0995E801DE
:10149000F3CF0C80DD81C02D209771F7F894109266
:1014A0005D02DF91CF911F910F910895BC0185E6F8
:1014B00092E0B0CF0895F894CCDF7894089560E07E
:1014C00070E085E692E097DF65E672E08EE592E0F7
:1014D00092CF089597FB072E16F4009406D077FD5F
:1014E00008D01AD007FC05D03EF4909581959F4F07
:1014F0000895709561957F4F0895A29FB001B39FA5
:10150000C001A39F700D811D1124911DB29F700D0C
:10151000811D1124911D0895AA1BBB1B51E107C019
:10152000AA1FBB1FA617B70710F0A61BB70B881F73
:10153000991F5A95A9F780959095BC01CD01089502
:10154000EE0FFF1F0024001C0BBE0790F691E02D4C
:101550000994CF93DF938230910510F482E090E0FC
:10156000E0916E02F0916F0220E030E0C0E0D0E048
:10157000309711F14081518148175907C0F0481741
:10158000590761F482819381209719F09B838A83A4
:101590002BC090936F0280936E0226C021153105F7
:1015A00019F04217530718F49A01BE01DF01EF0149
:1015B0000280F381E02DDCCF2115310509F1281BD4
:1015C000390B2430310590F412968D919C9113972C
:1015D0006115710521F0FB019383828304C0909310
:1015E0006F0280936E02FD01329644C0FD01E20F4E
:1015F000F31F81939193225031092D933C933AC06C
:1016000020916C0230916D02232B41F42091020154
:101610003091030130936D0220936C022091000100
:10162000309101012115310541F42DB73EB74091AC
:10163000040150910501241B350BE0916C02F091DF
:101640006D02E217F307A0F42E1B3F0B2817390792
:1016500078F0AC014E5F5F4F2417350748F04E0F0E
:101660005F1F50936D0240936C028193919302C06F
:10167000E0E0F0E0CF01DF91CF9108950F931F9349
:10168000CF93DF93009709F48CC0FC01329713824B
:10169000128200916E0210916F020115110581F402
:1016A00020813181820F931F20916C0230916D0255
:1016B0002817390779F5F0936D02E0936C0271C039
:1016C000D80140E050E0AE17BF0750F412962D91BC
:1016D0003C911397AD012115310509F1D901F3CFE3
:1016E0009D01DA013383228360817181860F971F08
:1016F0008217930769F4EC0128813981260F371F7F
:101700002E5F3F4F318320838A819B819383828325
:10171000452B29F4F0936F02E0936E0242C01396BA
:10172000FC93EE931297ED01499159919E01240F7C
:10173000351FE217F30771F480819181840F951FA3
:10174000029611969C938E938281938113969C931B
:101750008E931297E0E0F0E0D80112968D919C9163
:101760001397009719F0F8018C01F6CF8D919C9199
:1017700098012E5F3F4F820F931F20916C02309192
:101780006D022817390769F4309729F410926F0217
:1017900010926E0202C01382128210936D020093A7
:1017A0006C02DF91CF911F910F910895BB274A30B2
:1017B00031F4992322F4BDE2909581959F4F01C0A9
:1017C000BB27FB015527AA27880F991FAA1FA4171B
:1017D00010F0A41B83955051B9F7A05DAA3308F00F
:1017E000A95DA193009779F7B111B1931192CB0143
:1017F00000C0DC01FC01672F71917723E1F732977C
:1018000004C07C916D9370836291AE17BF07C8F3DB
:061810000895F894FFCFDB
:10181600000070022000080000000000A202000084
:101826000000D6001F01FAFF0000E60000000000DD
:10183600A40100000000A602000000008403530378
:10184600FAFF0000140400000000D60300000000A8
:10185600D10400000000CF05000000008405000050
:1018660000009C06000000009D0700000000BE0866
:00000001FF
