:1000000091C00000D2C00000D0C00000CEC00000EF
:10001000CCC00000CAC00000C8C00000C6C00000BC
:10002000C4C00000C2C00000C0C000000C943C0866
:10003000BCC00000BAC00000B8C00000B6C00000DC
:10004000B4C00000B2C00000B0C00000AEC00000EC
:10005000ACC00000AAC00000A8C00000A6C00000FC
:1000600025C100008CC20000A0C000009EC000009E
:100070009CC000009AC0000098C0000096C000001C
:1000800094C00000C8C5000050C600000801060C5E
:100090000018233534472566455926573488587744
:1000A000566B27383499276645AA6AAA37999988E2
:1000B000677B2839347A256645BB2B793488587795
:1000C00056CC7CCC38CC7C9945BBBBBB7BAAAA99CF
:1000D000788F293A344B256645CC29573488587790
:1000E00056DD2D8D34BB296645AA6AAA37999988B1
:1000F00067EE8EEE39EE8EAA45EE8EEE39BB8B772B
:1001000056DDDDDD8DDDDDDD49CCCCCCCCBBBBAA45
:10011000890083015C0226038304E7043406E206B7
:10012000FF08240A11241FBECFEFD0E4DEBFCDBFED
:10013000099A0A9A0F9A229A539A549AECECF0E090
:100140001182108283EC8093CA0088E18093C900F9
:100150001182108260E080E4BBD460E080E6B8D415
:1001600011E0A0E0B1E0E0EAF7E100E00BBF02C07F
:1001700007900D92A036B107D9F722E0A0E6B1E0D2
:1001800001C01D92A537B207E1F710E0C2E9D0E047
:1001900004C02197FE010E94650AC938D107C9F73A
:1001A000119A789413D40C94CE0B2ACF28E230E025
:1001B000FC0135832483EAE7F0E089E8808380E668
:1001C00080937C008081806480830895CF93DF9347
:1001D000EC012091790030E01F822A30310578F45B
:1001E00080E3FE01369782878387809179004AE019
:1001F000BE016A5F7F4F90E00E949B0B18C02436BF
:10020000310560F480E38C83809179004AE0BE017F
:100210006B5F7F4F90E00E949B0B09C0809179003B
:100220004AE0BE016C5F7F4F90E00E949B0B809183
:10023000790090E09A878987DF91CF910895CF93D5
:10024000DF93EC012091790030E01D862A303105E2
:1002500068F480E38A878B87809179004AE0BE0149
:10026000645F7F4F90E00E949B0B18C024363105DD
:1002700060F480E38A87809179004AE0BE01655F7F
:100280007F4F90E00E949B0B09C0809179004AE06B
:10029000BE01665F7F4F90E00E949B0B80917900CA
:1002A00090E0988B8F87DF91CF9108951F920F92E6
:1002B0000FB60F9211240BB60F922F933F934F93CB
:1002C0005F936F937F938F939F93AF93BF93EF93BE
:1002D000FF9386E691E00E94F209FF91EF91BF91B2
:1002E000AF919F918F917F916F915F914F913F91CE
:1002F0002F910F900BBE0F900FBE0F901F9018956F
:100300008AE691E00895CF93DF9382E691E0C2D729
:10031000C0E6D1E08CE091E09983888388E691E0A3
:10032000B9D782E191E0998388838AE191E09F8344
:100330008E8318A21F8E88E290E09D838C83CE016D
:100340001DD5DF91CF910895CF92DF92EF92FF926A
:100350000F931F93CF93DF938C0188E290E0D80135
:1003600015969C938E93149761E08CE897D3D82FC1
:10037000F801C2A5C827982F987B983B51F5C0DF9C
:10038000BC0180E495D20F2EF9E7CF2ED12CF02DB1
:10039000D6018C91F801668177810F2EFEE4FF2E45
:1003A000F02DF89EC001112487569A4E2CD4D60108
:1003B0008C91D8011696ED91FC911797EE0FFF1FC7
:1003C000E00FF11FF89EC001112487569A4E90AF9E
:1003D00087ABCC2309F461C0F801D2A7C0FF1FC0CE
:1003E000D0FF1DC083A5811110C085A596A5F8D6A4
:1003F000D8019F968D919C91D097F7D6F80181A94D
:1004000092A9F8D684EA70D602C080E06DD6D801F1
:100410009B969C919B9781E089279B968C93C6FF26
:1004200014C0D6FF12C0D8D0D4D06C01E12CF12C6E
:10043000B701F601819191916F01E5D3FFEFEF1ABA
:10044000FF0A84E0E816F10499F7C2FF13C0D2FF57
:1004500011C0D80116968D919C9117970196843002
:10046000910529F017969C938E93169703C0F80177
:1004700017821682C1FF11C0D1FF0FC0AAD0F801A8
:10048000F796DC019801215C3F4F819191918D930A
:100490009D93E217F307C9F7C5D0DF91CF911F9164
:1004A0000F91FF90EF90DF90CF90089589E891E051
:1004B00008958AE991E00895CF93DF9383E891E06E
:1004C000E9D6C1E8D1E080E291E0998388831F8278
:1004D0001E828BE090E09EA78DA788E390E098AB0A
:1004E0008FA78CE390E09AAB89AB8BE090E078D655
:1004F0008FA598A97AD689A99AA97CD680EA90E096
:10050000EED51CAA1BAA1BA6EAE9F1E0A9E8B1E016
:100510002AEA31E080E281938D93E217F307D9F75D
:10052000C1E8D1E085E08CA788E290E09D838C83D0
:1005300061E08CE8B3D28AA7CE0120D44DD0DF9100
:10054000CF9108950895CAC70895FC01F99916C07E
:100550008681882399F081B592B5019692BD81BDBF
:10056000A481B581CD010196958384838C9180BD52
:10057000FA9AF99A868181508683FB9A08951F9290
:100580000F920FB60F9211240BB60F922F933F9339
:100590004F935F936F937F938F939F93AF93BF938B
:1005A000EF93FF93FB9880EC91E01CD7FF91EF91C4
:1005B000BF91AF919F918F917F916F915F914F917B
:1005C0003F912F910F900BBE0F900FBE0F901F9079
:1005D00018958DEC91E00895F99922C0E0ECF1E0D6
:1005E00087EC91E0958384838FEF9FE092BD81BD7E
:1005F0008DE0868381B592B5019692BD81BDF89A52
:10060000A481B581CD0101969583848380B58C93B7
:1006100086819FEF980F96838111ECCF81E008953A
:1006200080E00895F99910C0E0ECF1E087EC91E0EA
:10063000958384838EE086838FEF9FE092BD81BD9A
:10064000CF01FDD681E0089580E0089582EC91E02D
:1006500021D686E291E09093C1018093C001F9997F
:1006600020C0E0ECF1E087EC91E0958384838FEF8C
:100670009FE092BD81BD8DE0868381B592B50196E4
:1006800092BD81BDF89AA481B581CD010196958373
:10069000848380B58C9386819FEF980F9683811118
:1006A000ECCF0895CF93DF93FC012385211102C085
:1006B000128626C0EC0180E0DBD18823F4F06C8543
:1006C000623030F060E08B85C5D181E08C8702C05C
:1006D0008B85C0D18D85813041F4EE85FF85CF01BA
:1006E00001969F878E87E08107C0EE85FF85CF0149
:1006F00001969F878E87E491EB87CE0106969FD661
:10070000DF91CF910895CF93DF93EC018A858730F5
:1007100051F482E08A8782E090E09D838C8360E0E0
:1007200080E398D13FC0CE0130D360E080E387D131
:1007300088E774D160E080E382D182E36FD160E02A
:1007400080E27DD182E36AD160E088E283D182E3F6
:1007500065D160E080E47ED182E360D161E085EA2A
:1007600079D182E35BD160E080E474D182E356D139
:1007700081E07ED191E0853A09F490E0992311F06F
:100780009A8710C082E08A878EEF8D871C868DE85D
:1007900090E09F878E87ECE8F0E0E491EB87CE0154
:1007A00006964DD6DF91CF910895DC0117962C91D6
:1007B00017971596ED91FC91169714968C911497B6
:1007C0009091E70191112CC0ADEDB1E092E01A9645
:1007D0009C931A971D962C931D971F96FC93EE934E
:1007E0001E97982F90951C969C93923010F08068DD
:1007F00011C0213041F4CF0101969093EC01809318
:10080000EB01808107C0CF0101969093EC018093AA
:10081000EB0184918093E80183EE91E010C6089586
:10082000CD010DC608950F931F93CF93DF93FC0165
:100830002581211102C0148236C0EC0180E018D15C
:1008400088237CF16E81623058F060E08E010650A2
:100850001109F8018385FED081E0F801848702C088
:100860008D81F8D08F81813071F4DE0116971E964C
:10087000ED91FC911F97CF0101961F969C938E934B
:100880001E97E0810DC0DE0116971E96ED91FC913A
:100890001F97CF0101961F969C938E931E97E4910C
:1008A000ED83CE01CCD5DF91CF911F910F910895AB
:1008B0009091E70191111DC0EDEDF1E092E092877A
:1008C00091E0958777876687982F909594879230E7
:1008D00010F0806808C0CB0101969093EC018093E2
:1008E000EB01FB0180818093E80183EE91E0A7C5D5
:1008F0000895E5EDF1E084837683658381E0878365
:10090000CF019DC50895CF93DF938FED91E0C2D4C1
:10091000CDEDD1E08CE091E09983888385EE91E084
:10092000B9D48CE291E09983888384E391E09F833A
:100930008E8387E08A8787E090E09D838C83CE0159
:100940001DD287ED91E0A6D48AE391E09093D60181
:100950008093D501DF91CF910895811105C08091D9
:100960000601909107010895E82FF0E0F595E795CD
:10097000EF56FF4FE49180FF0BC08E2F90E09595CE
:10098000879595958795959587959595879503C0B6
:10099000EF708E2F90E090930701809306010895E9
:1009A000CF93DF93FC01248121110DC0EC0194D37E
:1009B00080FF05C080E098D381E08C8304C084EA86
:1009C00093D3CE013CD5DF91CF910895FFCFCF9344
:1009D000DF9384EF91E05ED4E2EFF1E0C0E4D1E098
:1009E000D183C08314828FEE91E054D4EDEEF1E018
:1009F000D183C0831482DF91CF910895E8ECF0E0B9
:100A0000908195FFFDCF8093CE00E8ECF0E08081EF
:100A10008823ECF78091CE0008950895CF93882322
:100A200021F0C82FFADFC150E9F7CF910895282FA0
:100A3000022E2EEF0694221FE8F3822F08952A98A3
:100A40009FEF97B9660F660F862B88B9179AE5DF77
:100A500017980895CF93DF93C82FD62F807FEFDFAD
:100A60006D2F8C2F8295807FEADFDF91CF910895E3
:100A7000CF932A989FE097B98260880F880F88B932
:100A8000179ACBDF1798C6B1179AC7DF179886B1A8
:100A900082958F70C07F8C2BCF910895CF93DF9379
:100AA000CAECD0E098819E7F98832A989FEF97B9EF
:100AB00088B92A9A862FB2DF8881816088832A9834
:100AC00088B1837F88B980E099DFDF91CF91089565
:100AD0002A989FEF97B988B92A9A862F8FDF2A988C
:100AE0000895CF936091F801C62FCF7187709FDF73
:100AF000682F6C2B6093F80180E4EADFCF910895B2
:100B000087786091F7016877682B6093F70180E63A
:100B1000DFCF0895FC0180859185019691878087BC
:100B20002285222309F440C0883E934081F58481C8
:100B30009581DC01AA0FBB1FA85FBD4F2D913C9191
:100B4000468157812417350748F4880F991FDC0127
:100B5000A85FBD4F2F5F3F4F2D933C9384819581BC
:100B6000DC01AA0FBB1FA85FBD4F2D913C914681B0
:100B700057814217530748F4880F991FDC01A85F7B
:100B8000BD4F215031092D933C9311861086A481CD
:100B9000B58186819781AA0FBB1FA85FBD4F8D933A
:100BA0009C93892B09F012860895CF93DF93EC0173
:100BB0008C8991E0980F892F87708C8B92DF9C89AC
:100BC000E92FF0E03296EE0FFF1FEC0FFD1F808142
:100BD0009181009751F090939B0080939A00E0E9F7
:100BE000F0E08081806280830BC080E096E3909388
:100BF0009B0080939A00E0E9F0E080818F7D808304
:100C0000DF91CF910895FB01EE0FFF1FE85FFD4FCD
:100C10009183808308951F920F920FB60F92112433
:100C20000BB60F922F933F934F935F936F937F93E6
:100C30008F939F93AF93BF93EF93FF9384E092E0E2
:100C4000D1D3FF91EF91BF91AF919F918F917F9100
:100C50006F915F914F913F912F910F900BBE0F902D
:100C60000FBE0F901F90189586E092E013D3E4E03A
:100C7000F2E086E491E091838083279A80E096E316
:100C800090939B0080939A00A1E7B0E08C918460E0
:100C90008C931782168215821482148A1386128608
:100CA000118610861786168615861486138A128A70
:100CB000118A108A8BEF91E0EDD2E9EFF1E08CE43C
:100CC00091E09183808312860895CF93DF93EC01A6
:100CD000688579856115710519F06E5F7F4F02C0D7
:100CE00060E070E0CE010496E2D20097C9F002976E
:100CF000998788870097B1F0FC01848195810197DD
:100D000095838483892B49F488859985DC01ED914D
:100D1000FC910190F081E02D0995CE0190D302C0A5
:100D200019861886DF91CF9108951F920F920FB602
:100D30000F9211240BB60F922F933F934F935F9313
:100D40006F937F938F939F93AF93BF93EF93FF9393
:100D50008BE192E047D3FF91EF91BF91AF919F91CB
:100D60008F917F916F915F914F913F912F910F9054
:100D70000BBE0F900FBE0F901F901895BC016E5FB9
:100D80007F4F8FE192E0B1C20895CF93DF93EC01E2
:100D9000BC016E5F7F4F8FE192E0D0D2009779F077
:100DA0009C012250310959F0809123029091240234
:100DB000C817D90721F43093240220932302DF912E
:100DC000CF910895CF93DF938DE192E063D2CBE191
:100DD000D2E082E591E0998388838FE192E05ED250
:100DE0001986188683E08093900089E180939100B2
:100DF00080E09CE69093990080939800E1E7F0E012
:100E0000808181608083DF91CF910895EF92FF927E
:100E10000F931F93CF93DF937C018B0150E0FA0176
:100E20003197E60FF71F9C01ADECBCEC2BD3EC0126
:100E3000D695C795D695C795D695C7959E01220F8D
:100E4000331FCE01880F991F880F991F880F991F94
:100E5000820F931F9701281B390BC901805D808386
:100E6000425051093AF178012097F1F09E01ADEC22
:100E7000BCEC08D3AC0156954795569547955695C9
:100E800047959A01220F331FCA01880F991F880FB7
:100E9000991F880F991F820F931F9E01281B390BE2
:100EA00090E3920FEA0101C090E231979083EE1532
:100EB000FF05D1F6CD2B19F08AE2F8018083DF918E
:100EC000CF911F910F91FF90EF900895CF92DF92F5
:100ED000EF92FF920F931F93CF93DF93EC01E6DA2B
:100EE0008C01E7DA6EE18CECD9DD88A736DD089756
:100EF0007C016EE18CEAD2DD89A781E090E023DB02
:100F00006C01FC01108689A592DDF60120E030E03D
:100F1000682F70E0AB01022E02C0559547950A94E8
:100F2000E2F740FD02C090E301C091E391932F5F8F
:100F30003F4F2830310571F7B60180E0B9DC6AA176
:100F40007BA182E3869F9001879F300D11244CA1E5
:100F500058A18C8D9D8D8E0D9F1D281739070CF47F
:100F6000C901319521953109821793070CF4C90104
:100F70009D8F8C8F2E8D3F8DF701E21BF30B9F0110
:100F8000FF8EEE8E5E9DF0015F9DF00D11247727A0
:100F900066D2E60FF71F429F6001439FD00C1124D9
:100FA000CE0EDF1E88A543DDF8013896D80120E07B
:100FB00030E0682F70E0AB01022E02C055954795D6
:100FC0000A94E2F740FD02C09EE201C09AE29293C9
:100FD0002F5F3F4FEA17FB0771F7FF203CF4F194B6
:100FE000E194F1088DE2F801818703C08BE2F801FA
:100FF000818741E0B801665F7F4FC70107DFDD20D1
:1010000044F4882799278C199D092DE2F80123873C
:1010100004C08BE2F8018387C601B801645F7F4F8B
:1010200044E0F4DE68897989CB018C199D09960129
:10103000260F371F2F3F310519F014F02FEF30E046
:101040008F3F910519F014F08FEF90E06901332381
:1010500014F4C12CD12CC092B300992314F480E075
:1010600090E08093B400DF91CF911F910F91FF909A
:10107000EF90DF90CF9008951F920F920FB60F92CE
:1010800011240BB60F922F933F934F935F936F935F
:101090007F938F939F93AF93BF93EF93FF9386B507
:1010A00080933702809184008093360288E392E037
:1010B00099D1FF91EF91BF91AF919F918F917F91C6
:1010C0006F915F914F913F912F910F900BBE0F90B9
:1010D0000FBE0F901F901895809161020895909314
:1010E0004B0280934A020895CF93C82F811106C006
:1010F00083E08093B00080E803DD07C083708468DC
:10110000FFDCC07FC360C093B000CF910895CF9340
:10111000DF93EC018885882381F0109231021092D0
:101120003002109233021092320286B5809335025B
:10113000809184008093340218861F8289859A8565
:101140008A30910560F480E38C838D8380917900EF
:101150004AE0BE016A5F7F4F90E0EDD216C0843650
:10116000910558F480E38C83809179004AE0BE01B8
:101170006B5F7F4F90E0DFD208C0809179004AE03A
:10118000BE016C5F7F4F90E0D6D2BE016C5F7F4F97
:1011900080E08EDB56B54091840020913002309182
:1011A00031028091320290913302280F391F250FAE
:1011B000311D240F311D80913502281B310980918A
:1011C0003402281B310989859A852817390718F4B4
:1011D000CE0135D102C080E087DFDF91CF91089545
:1011E0009093590280935802089590935B028093E4
:1011F0005A02089590935D0280935C020895CF9304
:10120000DF938AE392E046D0C8E3D2E088E591E03C
:10121000998388831F8A1E8A1D8A1C8A1B8E1A8EB8
:10122000198E188E1F8E1E8E1D8E1C8E579A569AE2
:10123000E0EBF0E093E0908387E08093B10080934F
:10124000810085BDA6EBB0E08C918F7D8C9390835F
:1012500080E856DC80E88093B4008093B3001FA23E
:101260001EA2E0E7F0E080818160808385E590E068
:10127000998B888B85E090E09B8B8A8B87E292E04C
:1012800009D08EE591E09093260280932502DF91AC
:10129000CF910895FC01918380830895CF93DF93CC
:1012A000EC01F8DFDB83CA83DF91CF9108956115EC
:1012B000710509F4BC01FB01208131812817390730
:1012C00019F480E090E00895822F932F0895FC0197
:1012D00080819181E817F90711F473836283DB0140
:1012E0008D939C93718360830895DC011296ED9138
:1012F000FC9113977183608313967C936E9312977E
:10130000FB01918380830895DC01ED91FC9111979D
:101310008E179F0779F08081918111969C938E930F
:101320008A179B0721F413969C938E931297F1834F
:10133000E08302C0E0E0F0E0CF010895CF93DF93B7
:10134000AC01FC0117C02617370799F4DF01EC0147
:101350002A813B812617370711F4FB83EA83EB01CF
:10136000888199818D939C93798368838E2F9F2F99
:1013700008C0F901208131814217530721F780E02D
:1013800090E0DF91CF9108950F931F93CF93DF9358
:10139000EC018B0183DF1D830C831E82DF91CF91D3
:1013A0001F910F910895FC012681222331F06E5F79
:1013B0007F4F8AE692E08BCF08956E5F7F4F95CF87
:1013C0000895CF93DF93EC0181E08E83CE019CDF03
:1013D000009711F0029702C080E090E01E82DF913A
:1013E000CF9108950F931F93CF93DF93BC0183E6B2
:1013F00092E0D9DF8091620281111CC081E080936C
:1014000062027894C3E6D2E08E01CE01DADF009763
:1014100049F0DC01ED91FC910190F081E02D0995FE
:10142000E801F3CF0C80DD81C02D209771F7F8948F
:1014300010926202DF91CF911F910F910895BC012C
:101440008AE692E0B0CF089560E070E08AE692E02C
:101450009BDF6AE672E083E692E096CF089597FB01
:10146000072E16F4009406D077FD08D01AD007FC9A
:1014700005D03EF4909581959F4F089570956195A4
:101480007F4F0895A29FB001B39FC001A39F700D2D
:10149000811D1124911DB29F700D811D1124911D7C
:1014A0000895AA1BBB1B51E107C0AA1FBB1FA617AB
:1014B000B70710F0A61BB70B881F991F5A95A9F7FD
:1014C00080959095BC01CD010895EE0FFF1F00247B
:1014D000001C0BBE0790F691E02D0994CF93DF938B
:1014E0008230910510F482E090E0E0917302F09177
:1014F000740220E030E0C0E0D0E0309711F140818C
:10150000518148175907C0F04817590761F4828183
:101510009381209719F09B838A832BC09093740248
:101520008093730226C02115310519F04217530725
:1015300018F49A01BE01DF01EF010280F381E02D72
:10154000DCCF2115310509F1281B390B2430310579
:1015500090F412968D919C9113976115710521F06D
:10156000FB019383828304C090937402809373027F
:10157000FD01329644C0FD01E20FF31F8193919368
:10158000225031092D933C933AC020917102309141
:101590007202232B41F42091020130910301309318
:1015A00072022093710220910001309101012115F6
:1015B000310541F42DB73EB740910401509105012A
:1015C000241B350BE0917102F0917202E217F307D0
:1015D000A0F42E1B3F0B2817390778F0AC014E5FA3
:1015E0005F4F2417350748F04E0F5F1F509372026C
:1015F000409371028193919302C0E0E0F0E0CF014B
:10160000DF91CF9108950F931F93CF93DF930097AE
:1016100009F48CC0FC01329713821282009173028C
:10162000109174020115110581F420813181820F1E
:10163000931F20917102309172022817390779F5B2
:10164000F0937202E093710271C0D80140E050E063
:10165000AE17BF0750F412962D913C911397AD0130
:101660002115310509F1D901F3CF9D01DA01338349
:10167000228360817181860F971F8217930769F417
:10168000EC0128813981260F371F2E5F3F4F3183B0
:1016900020838A819B8193838283452B29F4F09355
:1016A0007402E093730242C01396FC93EE93129778
:1016B000ED01499159919E01240F351FE217F3075F
:1016C00071F480819181840F951F029611969C93ED
:1016D0008E938281938113969C938E931297E0E070
:1016E000F0E0D80112968D919C911397009719F014
:1016F000F8018C01F6CF8D919C9198012E5F3F4FA0
:10170000820F931F209171023091720228173907BE
:1017100069F4309729F4109274021092730202C097
:10172000138212821093720200937102DF91CF91A3
:101730001F910F910895BB274A3031F4992322F469
:10174000BDE2909581959F4F01C0BB27FB015527B6
:10175000AA27880F991FAA1FA41710F0A41B83950E
:101760005051B9F7A05DAA3308F0A95DA193009785
:1017700079F7B111B1931192CB0100C0DC01FC01EA
:10178000672F71917723E1F7329704C07C916D93B5
:1017900070836291AE17BF07C8F30895F894FFCF26
:1017A000000075022000080000000000A2020000F6
:1017B0000000D6001F01FAFF0000E6000000000054
:1017C000A40100000000A5020000000083035203F2
:1017D000FAFF0000130400000000D5030000000021
:1017E000D00400000000D505000000008A050000BC
:1017F0000000650600000000660700000000870882
:00000001FF
