S0130000526F626F6361725F365F322E7372656323
S11300008FC00000D5C00000D3C00000D1C00000E4
S1130010CFC00000CDC00000CBC00000C9C00000AC
S1130020C7C00000C5C00000C3C0000026C7000050
S1130030BFC00000BDC00000BBC00000B9C00000CC
S1130040B7C00000B5C00000B3C00000B1C00000DC
S1130050AFC00000ADC00000ABC00000A9C00000EC
S1130060A7C00000A5C00000A3C00000A1C00000FC
S11300709FC000009DC000009BC0000099C000000C
S113008097C00000BEC400005CC500000801060C57
S11300900018233534472566455926573488587740
S11300A0566B27383499276645AA6AAA37999988DE
S11300B0677B2839347A256645BB2B793488587791
S11300C056CC7CCC38CC7C9945BBBBBB7BAAAA99CB
S11300D0788F293A344B256645CC2957348858778C
S11300E056DD2D8D34BB296645AA6AAA37999988AD
S11300F067EE8EEE39EE8EAA45EE8EEE39BB8B7727
S113010056DDDDDD8DDDDDDD49CCCCCCCCBBBBAA41
S1130110890009014F021C032A05ED0505083C0965
S113012011241FBECFEFD0E4DEBFCDBF099A0A9AD7
S11301300F9A229A539A549AECECF0E011821082AE
S113014083EC8093CA0088E18093C90011821082F5
S113015060E080E40BD360E080E608D311E0A0E027
S1130160B1E0EAEBF5E100E00BBF02C007900D92AD
S1130170A235B107D9F722E0A2E5B1E001C01D9292
S1130180A433B207E1F711E0C0E2D1E000E006C019
S113019022970109FE010BBF0E946909C231D107F0
S11301A080E00807A9F7119A78941DD20C94DB0A11
S11301B027CFCF93DF93EC0188E290E09D838C837B
S11301C061E08CE8B9D298A59827D1F088A790FF70
S11301D017C080FF15C089A581110CC08BA59CA5F3
S11301E005D78DA59EA507D78FA598A909D784EA19
S11301F081D602C080E07ED699A581E0892789A7AF
S1130200DF91CF91089588E591E0089589E691E022
S113021008950F931F93CF93DF9384E591E04ED716
S11302208CE091E090935301809352018BE090E035
S113023090937E0180937D010FE711E088E390E0C5
S1130240F80191838083C1E8D1E08CE390E0998345
S113025088838BE090E0CAD6F80180819181CBD667
S113026088819981CDD680EA90E03FD610928401AE
S11302701092830110927B01E9E6F1E0A8E5B1E078
S113028089E791E020E221932D93E817F907D9F744
S113029085E080937C0188E290E0909357018093FD
S11302A0560161E08CE848D280937A0182E591E0BE
S11302B071D4DF91CF911F910F91089508950C94FB
S11302C081090895CF93DF93EC018B85811102C0DE
S11302D01A8625C080E01AD28823F4F06C85623037
S11302E030F060E08B8504D281E08C8702C08B857E
S11302F0FFD18D85813041F4EE85FF85CF010196D4
S11303009F878E87E08107C0EE85FF85CF01019628
S11303109F878E87E491EB87CE010696A4D7DF9161
S1130320CF910895CF93DF93EC018A85873051F400
S113033082E08A8782E090E09D838C8360E080E3A2
S1130340D7D13FC0CE012DD460E080E3C6D188E789
S1130350B3D160E080E3C1D182E3AED160E080E25A
S1130360BCD182E3A9D160E088E2C2D182E3A4D106
S113037060E080E4BDD182E39FD161E085EAB8D139
S113038082E39AD160E080E4B3D182E395D181E045
S1130390BDD191E0853A09F490E0992311F09A8750
S11303A010C082E08A878EEF8D871C868DE890E0EE
S11303B09F878E87ECE8F0E0E491EB87CE01069608
S11303C052D7DF91CF910895DC0117962C9117979E
S11303D01596ED91FC91169714968C911497909123
S11303E09901911128C092E09093990120939C0166
S11303F0F0939E01E0939D01982F909590939B011B
S1130400923010F0806811C0213041F4CF01019680
S113041090939E0180939D01808107C0CF01019636
S113042090939E0180939D01849180939A0185E924
S113043091E019C70895CD0116C7089590919901C7
S1130440911120C092E09093990191E090939C01C6
S113045070939E0160939D01982F909590939B01BA
S1130460923010F0806808C0CB01019690939E01F1
S113047080939D01FB01808180939A0185E991E03D
S1130480F2C6089580938B0170938D0160938C0163
S113049081E080938E0187E891E0E5C60895CF93CB
S11304A0DF9381E991E00AD6CFE8D1E082E191E0DF
S11304B09983888387E991E001D688E191E0998363
S11304C0888380E291E0909396018093950187E080
S11304D08093990187E090E0909394018093930135
S11304E0CE0158D389E891E0E9D586E291E0909372
S11304F0880180938701DF91CF9108950697E2CE1A
S1130500811105C080910601909107010895E82F9B
S1130510F0E0F595E795EF56FF4FE49180FF0AC0B0
S1130520F0E0F595E795F595E795F595E795F5955B
S1130530E79502C0EF70F0E0F0930701E093060145
S11305408E2F9F2F0895CF93DF93EC01898581111E
S11305500DC0C8D4BAD080FF05C080E0CBD481E000
S1130560898704C084EAC6D4CE017DD6DF91CF91B9
S11305700895CF93DF93EC018E81811118C0B2D41A
S113058080FF11C08C819D8101969D838C8302978D
S113059029F480E0AFD481E08E8309C084EAAAD430
S11305A0CE0161D604C084EAA5D4CE015CD6DF9125
S11305B0CF91089560E070E080E49FE19FD162E014
S11305C070E080E797E19AD163E070E080E596E41B
S11305D095D18AE090E05ED161E070E089E995E12F
S11305E08DD194C108958CEE9AE371D18DEA91E096
S11305F03FD6E0DF8AE090E04DD186EA91E038D63C
S113060084EA78D48AE090E045D18FE991E030D64D
S11306108AE090E03FD186E490E05FD48CE26AD433
S11306208AE090E037D184EA65D489E090E032D161
S113063080E060D4CAD1FFCFCF93DF938FEA91E0FB
S11306403DD58CE291E09093AE018093AD01109280
S1130650B6011092B3011092B20188EA91E02ED54E
S1130660C2E3D1E0D093A701C093A6011092AC01DC
S11306701092AB011092AA0181EA91E01FD5D093A8
S1130680A001C0939F011092A5011092A4011092A1
S1130690A301DF91CF910895E8ECF0E0908195FFFC
S11306A0FDCF8093CE00E8ECF0E080818823ECF766
S11306B08091CE0008950895CF93882321F0C82F08
S11306C0FADFC150E9F7CF910895282F022E2EEFBB
S11306D00694221FE8F3822F08952A989FEF97B972
S11306E0660F660F862B88B9179AE5DF1798089569
S11306F0CF93DF93C82FD62F807FEFDF6D2F8C2F02
S11307008295807FEADFDF91CF910895CF932A9875
S11307109FE097B98260880F880F88B9179ACBDF5A
S11307201798C6B1179AC7DF179886B182958F704C
S1130730C07F8C2BCF910895CF93DF93CAECD0E088
S113074098819E7F98832A989FEF97B988B92A9AAF
S1130750862FB2DF8881816088832A9888B1837F5D
S113076088B980E099DFDF91CF9108952A989FEFAF
S113077097B988B92A9A862F8FDF2A980895CF933C
S1130780C091B801CF718770A0DF682F6C2B609384
S1130790B80180E4EBDFCF91089587786091B701C9
S11307A06877682B6093B70180E6E0CF0895FC0179
S11307B08085918501969187808722852223F1F196
S11307C0883E934071F524813581D901AA0FBB1F5E
S11307D0A853BE4F8D919C914681578184179507EC
S11307E040F4D901AA0FBB1FA853BE4F01968D93A5
S11307F09C9324813581D901AA0FBB1FA853BE4FF6
S11308008D919C91468157814817590740F4D9012D
S1130810AA0FBB1FA853BE4F01978D939C931186BB
S11308201086A481B58186819781AA0FBB1FA85326
S1130830BE4F8D939C93892B09F012860895CF9314
S1130840DF93EC018C898F5F87708C8B98DF8C89A8
S113085090E00296880F991FC80FD91F888199814B
S1130860009751F090939B0080939A00E0E9F0E0A8
S11308708081806280830BC080E096E390939B002C
S113088080939A00E0E9F0E080818F7D8083DF919E
S1130890CF9108950F931F93CF93DF9320E931E015
S11308A0829F8001839F100D929F100D11241016BA
S11308B0110644F4C0E0D0E08FEFFEDE2196C017AD
S11308C0D107D1F7DF91CF911F910F9108959093A4
S11308D0CF018093CE0120E43FE13093C9012093FE
S11308E0C80128ED39E53093CB012093CA0188581B
S11308F093419093CD018093CC010895FB01EE0FB9
S1130900FF1FE853FE4F918380830895CF93DF93B5
S11309108AE090E0BFDF88EF9AE29093CD01809364
S1130920CC018AE090E0B6DF8CE998E19093CF01A6
S11309308093CE018AE090E0ADDF8091CA0190916E
S1130940CB01883223E2920768F4CAECD1E0029624
S1130950998388838FEFB0DE88819981883223E27E
S11309609207A8F38091C8019091C901803526E4CB
S1130970920768F4C8ECD1E00296998388838FEFDC
S11309809BDE88819981803526E49207A8F388ED5F
S113099099E59093CB018093CA0181E090E07ADFDE
S11309A080E797E19093CD018093CC0181E090E0C2
S11309B071DF80E596E49093CF018093CE0181E0CE
S11309C090E068DFDF91CF91089580EB96E39093F8
S11309D0CB018093CA0188EF9AE29093CD01809372
S11309E0CC018CE998E19093CF018093CE018AE009
S11309F090E050DF80E49FE19093C9018093C801A7
S1130A0008951F920F920FB60F9211240BB60F92F6
S1130A102F933F934F935F936F937F938F939F9302
S1130A20AF93BF93EF93FF9384EC91E0EFD3FF91E7
S1130A30EF91BF91AF919F918F917F916F915F9152
S1130A404F913F912F910F900BBE0F900FBE0F90BF
S1130A501F90189586EC91E031D388E391E0909350
S1130A60C5018093C401279A80E096E390939B008C
S1130A7080939A00E1E7F0E08081846080831092A3
S1130A80CB011092CA011092C9011092C8011092B0
S1130A90D8011092CF011092CE011092CD01109284
S1130AA0CC011092D3011092D2011092D101109274
S1130AB0D0011092D7011092D6011092D501109254
S1130AC0D4018BEB91E0FAD28EE391E09093BA01DA
S1130AD08093B9011092C3010895CF93DF93EC0181
S1130AE0688579856115710519F06E5F7F4F02C0C5
S1130AF060E070E0CE010496EED20097E9F09C012C
S1130B00225031093987288721153105B9F0F901B7
S1130B10248135812150310935832483232B49F4E1
S1130B2088859985DC01ED91FC910190F081E02D9F
S1130B300995CE0198D302C019861886DF91CF910A
S1130B4008951F920F920FB60F9211240BB60F92B5
S1130B502F933F934F935F936F937F938F939F93C1
S1130B60AF93BF93EF93FF938BED91E04FD3FF913E
S1130B70EF91BF91AF919F918F917F916F915F9111
S1130B804F913F912F910F900BBE0F900FBE0F907E
S1130B901F901895BC016E5F7F4F8FED91E0B9C235
S1130BA00895CF93DF93EC01BC016E5F7F4F8FED0F
S1130BB091E0D8D2009771F00297009759F02091F4
S1130BC0E3013091E401C217D30721F49093E401C7
S1130BD08093E301DF91CF9108958DED91E06ED282
S1130BE084E491E09093DC018093DB018FED91E04C
S1130BF069D21092E4011092E30183E080939000A3
S1130C0089E18093910080E09CE690939900809321
S1130C109800E1E7F0E08081816080830895EF929D
S1130C20FF920F931F93CF93DF937C018B0150E0CE
S1130C30FA013197E60FF71F9C01ADECBCEC3AD3F7
S1130C40EC01D695C795D695C795D695C7959E01BF
S1130C50220F331FCE01880F991F880F991F880F09
S1130C60991F820F931F9701281B390BC901805DBF
S1130C70808342505109552324F12097E1F09E01CD
S1130C80ADECBCEC17D3969587959695879596957C
S1130C908795BC01660F771F9C01220F331F220F1B
S1130CA0331F220F331F260F371FC21BD30B2C2FCA
S1130CB0205DEC0101C020E23197208341505109AD
S1130CC0E0F6CD2B19F08AE2F8018083DF91CF9111
S1130CD01F910F91FF90EF900895CF92DF92EF92C2
S1130CE0FF920F931F93CF93DF93EC018CDA7C0177
S1130CF08DDA6EE18CEC20DD88A702DC8C010850D3
S1130D00110981E090E0DBDA6C01FC01108688A512
S1130D10DCDCF60120E030E090E0AC01022E02C001
S1130D20559547950A94E2F740FF02C041E301C09C
S1130D3040E341932F5F3F4F2830310571F7B601EF
S1130D4080E07CDB6AA17BA182E3869F9001879F80
S1130D50300D11244CA158A18C8D9D8D800F911FB5
S1130D60281739070CF4C9013195219531098217E7
S1130D7093070CF4C9019D8F8C8F2E8D3F8DF80144
S1130D80E21BF30B9F011F8F0E8F509FF001519FA9
S1130D90F00D112477277BD26F01C60ED71E429F18
S1130DA0C001439F900D1124C80ED91E88A58DDC67
S1130DB0F701389620E030E090E0AC01022E02C04A
S1130DC0559547950A94E2F740FF02C04AE201C0F4
S1130DD04EE242932F5F3F4F2830310571F71123C4
S1130DE03CF41195019511098DE2F701818703C047
S1130DF08BE2F701818741E0B701665F7F4FC8014D
S1130E000EDFDD2044F4882799278C199D092DE2F3
S1130E10F701238704C08BE2F7018387C601B7017A
S1130E20645F7F4F44E0FBDE28893989C9018C194E
S1130E309D092C0D3D1D2F3F310519F014F02FEFA6
S1130E4030E08F3F910519F014F08FEF90E06901C5
S1130E50332314F4C12CD12CC092B300992314F47D
S1130E6080E090E08093B400DF91CF911F910F91C7
S1130E70FF90EF90DF90CF9008951F920F920FB6DE
S1130E800F9211240BB60F922F933F934F935F93BE
S1130E906F937F938F939F93AF93BF93EF93FF933E
S1130EA086B58093F701809184008093F60188EFE2
S1130EB091E0ACD1FF91EF91BF91AF919F918F9150
S1130EC07F916F915F914F913F912F910F900BBE46
S1130ED00F900FBE0F901F90189590930902809366
S1130EE00802089580912002089590930B02809344
S1130EF00A020895CF93C82F811106C083E080931E
S1130F00B00080E84ADC07C08370846846DCC07F98
S1130F10C360C093B000CF910895CF93DF93EC01E9
S1130F208885882381F01092F1011092F0011092CB
S1130F30F3011092F20186B58093F501809184004B
S1130F408093F40118861F8289859A858A309105D9
S1130F5060F480E38C838D83809179004AE0BE0144
S1130F606A5F7F4F90E0F4D216C08436910558F43E
S1130F7080E38C83809179004AE0BE016B5F7F4FF0
S1130F8090E0E6D208C0809179004AE0BE016C5F2F
S1130F907F4F90E0DDD2BE016C5F7F4F80E04EDA80
S1130FA056B5409184002091F0013091F101809177
S1130FB0F2019091F301280F391F250F311D240FE1
S1130FC0311D8091F501281B31098091F401281B02
S1130FD0310989859A852817390718F4CE0143D138
S1130FE002C080E087DFDF91CF91089590931902CA
S1130FF080931802089590931B0280931A02089517
S113100090931D0280931C0208958AEF91E056D0BC
S11310108AE491E09093F9018093F80110920F0211
S113102010920E0210920D0210920C0210921302F2
S113103010921202109211021092100210921702D2
S1131040109216021092150210921402579A569A90
S1131050E0EBF0E093E0908387E08093B10080932D
S1131060810085BDA6EBB0E08C918F7D8C9390833D
S113107080E893DB80E88093B4008093B3001092FF
S11310801F0210921E02E0E7F0E0808181608083FD
S11310908CE390E0909309028093080285E090E04D
S11310A090930B0280930A0287EE91E007D080E5CB
S11310B091E09093E6018093E5010895FC0191830A
S11310C080830895CF93DF93EC01F8DFDB83CA8339
S11310D0DF91CF9108956115710509F4BC01FB01FD
S11310E0208131812817390719F480E090E00895B0
S11310F0822F932F0895FC0180819181E817F907CD
S113110011F473836283DB018D939C9371836083F9
S11311100895DC011296ED91FC911397718360831D
S113112013967C936E931297FB01918380830895A9
S1131130DC01ED91FC9111978E179F0779F0808166
S1131140918111969C938E938A179B0721F4139691
S11311509C938E931297F183E08302C0E0E0F0E069
S1131160CF010895CF93DF93AC01FC0117C026177C
S1131170370799F4DF01EC012A813B8126173707F1
S113118011F4FB83EA83EB01888199818D939C930D
S1131190798368838E2F9F2F08C0F90120813181C4
S11311A04217530721F780E090E0DF91CF91089533
S11311B00F931F93CF93DF93EC018B0183DF1D8388
S11311C00C831E82DF91CF911F910F910895FC0132
S11311D02681222331F06E5F7F4F89E292E08BCF2C
S11311E008956E5F7F4F95CF0895CF93DF93EC0101
S11311F081E08E83CE019CDF009711F0029702C03C
S113120080E090E01E82DF91CF9108950F931F93A9
S1131210CF93DF93BC0182E292E0D9DF8091210277
S113122081111CC081E0809321027894C2E2D2E053
S11312308E01CE01DADF009749F0DC01ED91FC91DB
S11312400190F081E02D0995E801F3CF0C80DD8158
S1131250C02D209771F7F89410922102DF91CF915D
S11312601F910F910895BC0189E292E0B0CF0895D7
S1131270F894CCDF7894089560E070E089E292E01D
S113128097DF69E272E082E292E092CF089597FBE1
S1131290072E16F4009406D077FD08D01ED007FC64
S11312A005D03EF4909581959F4F08957095619572
S11312B07F4F0895A29FB001B39FC001A39F700DFB
S11312C0811D1124911DB29F700D811D1124911D4A
S11312D008950790F691E02D0994AA1BBB1B51E1D8
S11312E007C0AA1FBB1FA617B70710F0A61BB70B92
S11312F0881F991F5A95A9F780959095BC01CD0137
S11313000895CF93DF938230910510F482E090E04A
S1131310E0913202F091330220E030E0A0E0B0E04E
S1131320309739F14081518148175907B8F048176F
S1131330590771F482819381109729F013969C9335
S11313408E9312972CC0909333028093320227C05D
S11313502115310531F04217530718F0A901DB01BB
S113136001C0EF019A01BD01DF010280F381E02D8C
S1131370D7CF21153105F9F0281B390B243031055D
S113138080F48A819B816115710521F0FB019383AF
S1131390828304C09093330280933202FE0132961A
S11313A044C0FE01E20FF31F81939193225031094F
S11313B0398328833AC02091300230913102232BA3
S11313C041F42091020130910301309331022093C2
S11313D0300220910001309101012115310541F4C1
S11313E02DB73EB74091040150910501241B350BE4
S11313F0E0913002F0913102E217F307A0F42E1BC2
S11314003F0B2817390778F0AC014E5F5F4F241764
S1131410350748F04E0F5F1F50933102409330025E
S11314208193919302C0E0E0F0E0CF01DF91CF918E
S11314300895CF93DF93009709F487C0FC01329796
S113144013821282C0913202D0913302209781F428
S113145020813181280F391F80913002909131020F
S11314608217930779F5F0933102E09330026DC04F
S1131470DE0120E030E0AE17BF0750F412964D9124
S11314805C9113979D014115510509F1DA01F3CFE0
S1131490B383A28340815181840F951F8A179B07D0
S11314A071F48D919C911197840F951F02969183ED
S11314B0808312968D919C91139793838283211537
S11314C0310529F4F0933302E09332023EC0D9018E
S11314D01396FC93EE9312974D915D91A40FB51F53
S11314E0EA17FB0779F480819181840F951F029696
S11314F0D90111969C938E938281938113969C9328
S11315008E931297E0E0F0E08A819B81009719F0B6
S1131510FE01EC01F9CFCE01029628813981820FB8
S1131520931F20913002309131022817390769F452
S1131530309729F4109233021092320202C01382BF
S11315401282D0933102C0933002DF91CF9108957B
S1131550BB274A3031F4992322F4BDE2909581955A
S11315609F4F01C0BB27FB015527AA27880F991F4E
S1131570AA1FA41710F0A41B83955051B9F7A05DBE
S1131580AA3308F0A95DA193009779F7B111B1933B
S11315901192CB0100C0DC01FC01672F719177230C
S11315A0E1F7329704C07C916D9370836291AE171A
S10D15B0BF07C8F30895F894FFCFB5
S11315BA000034022000080000000000D9000000E6
S11315CA00005E010000000092016201FAFF0000BF
S11315DA7E0200000000E40100000000A3020000F3
S11315EA0000B902000000001F0400000000D70335
S11315FA000000006D05000000006D0600000000F8
S105160A8D0746
S9030000FC
