:1000000091C00000D2C00000D0C00000CEC00000EF
:10001000CCC00000CAC00000C8C00000C6C00000BC
:10002000C4C00000C2C00000C0C00000FDC6000087
:10003000BCC00000BAC00000B8C00000B6C00000DC
:10004000B4C00000B2C00000B0C00000AEC00000EC
:10005000ACC00000AAC00000A8C00000A6C00000FC
:1000600042C3000033C10000A0C000009EC00000D9
:100070009CC000009AC0000098C0000096C000001C
:1000800094C00000A0C4000028C500000801060CB0
:100090000018233534472566455926573488587744
:1000A000566B27383499276645AA6AAA37999988E2
:1000B000677B2839347A256645BB2B793488587795
:1000C00056CC7CCC38CC7C9945BBBBBB7BAAAA99CF
:1000D000788F293A344B256645CC29573488587790
:1000E00056DD2D8D34BB296645AA6AAA37999988B1
:1000F00067EE8EEE39EE8EAA45EE8EEE39BB8B772B
:1001000056DDDDDD8DDDDDDD49CCCCCCCCBBBBAA45
:10011000890006019001ED029C03C7030C05BA0596
:10012000D707FC0811241FBECFEFD0E4DEBFCDBF40
:10013000099A0A9A0F9A229A539A549AECECF0E090
:100140001182108283EC8093CA0088E18093C900F9
:100150001182108260E080E49BD360E080E698D357
:1001600011E0A0E0B1E0E0E5F5E100E00BBF02C086
:1001700007900D92A835B107D9F722E0A8E5B1E0C4
:1001800001C01D92AA34B207E1F710E0C2E9D0E045
:1001900004C02197FE010E943D09C938D107C9F763
:1001A000119A7894F3D20C94A60A2ACFCF93DF93B6
:1001B000EC0188E290E09D838C8361E08CE84ED373
:1001C00098A59827D1F088A790FF17C080FF15C089
:1001D00089A581110CC08BA59CA5DAD68DA59EA5FD
:1001E000DCD68FA598A9DED684EA56D602C080E078
:1001F00053D699A581E0892789A7DF91CF910895EA
:100200008EE591E008958FE691E00895CF93DF9316
:100210008AE591E017D7C8E5D1E08CE091E09983B9
:1002200088838BE090E09CA78BA788E390E09EA753
:100230008DA78CE390E098AB8FA78BE090E0A8D6D9
:100240008DA59EA5AAD68FA598A9ACD680EA90E0E8
:100250001ED61AAA19AA19A6EFE6F1E0AEE5B1E09A
:100260002FE731E080E281938D93E217F307D9F70E
:10027000C8E5D1E085E08AA788E290E09D838C8381
:1002800061E08CE8EBD288A7CE0150D4DF91CF910A
:1002900008950895FBC70895FC01F99916C0868159
:1002A000882399F081B592B5019692BD81BDA48154
:1002B000B581CD010196958384838C9180BDFA9A96
:1002C000F99A868181508683FB9A08951F920F9236
:1002D0000FB60F9211240BB60F922F933F934F93AB
:1002E0005F936F937F938F939F93AF93BF93EF939E
:1002F000FF93FB988DE891E04DD7FF91EF91BF916F
:10030000AF919F918F917F916F915F914F913F91AD
:100310002F910F900BBE0F900FBE0F901F9018954E
:100320008FE891E08FD682E191E090938E018093E7
:100330008D01F99920C0EDE8F1E084E991E0958321
:1003400084838FEF9FE092BD81BD8DE0868381B570
:1003500092B5019692BD81BDF89AA481B581CD0177
:1003600001969583848380B58C9386819FEF980F47
:1003700096838111ECCF0895CF93DF93FC01238501
:10038000211102C0128626C0EC0180E051D28823E0
:10039000F4F06C85623030F060E08B853BD281E018
:1003A0008C8702C08B8536D28D85813041F4EE85F5
:1003B000FF85CF0101969F878E87E08107C0EE857C
:1003C000FF85CF0101969F878E87E491EB87CE0151
:1003D00006960DD7DF91CF910895CF93DF93EC016F
:1003E0008A85873051F482E08A8782E090E09D839D
:1003F0008C8360E080E30ED23FC0CE019ED360E0EC
:1004000080E3FDD188E7EAD160E080E3F8D182E3C0
:10041000E5D160E080E2F3D182E3E0D160E088E200
:10042000F9D182E3DBD160E080E4F4D182E3D6D17C
:1004300061E085EAEFD182E3D1D160E080E4EAD1E6
:1004400082E3CCD181E0F4D191E0853A09F490E0E7
:10045000992311F09A8710C082E08A878EEF8D87EA
:100460001C868DE890E09F878E87ECE8F0E0E491B1
:10047000EB87CE010696BBD6DF91CF910895DC01C4
:1004800017962C9117971596ED91FC911697149647
:100490008C9114979091B40191112CC0AAEAB1E00B
:1004A00092E01A969C931A971D962C931D971F966F
:1004B000FC93EE931E97982F90951C969C939230E8
:1004C00010F0806811C0213041F4CF010196909363
:1004D000B9018093B801808107C0CF010196909344
:1004E000B9018093B80184918093B50180EB91E0CC
:1004F0007EC60895CD017BC608950F931F93CF93B9
:10050000DF93FC012581211102C0148236C0EC0169
:1005100080E08ED188237CF16E81623058F060E0FB
:100520008E0106501109F801838574D181E0F8012C
:10053000848702C08D816ED18F81813071F4DE019C
:1005400016971E96ED91FC911F97CF0101961F966D
:100550009C938E931E97E0810DC0DE0116971E9628
:10056000ED91FC911F97CF0101961F969C938E935E
:100570001E97E491ED83CE013AD6DF91CF911F9182
:100580000F9108959091B40191111DC0EAEAF1E034
:1005900092E0928791E0958777876687982F90956C
:1005A0009487923010F0806808C0CB010196909338
:1005B000B9018093B801FB0180818093B50180EB84
:1005C00091E015C60895E2EAF1E0848376836583BD
:1005D00081E08783CF010BC60895CF93DF938CEA28
:1005E00091E030D5CAEAD1E088E191E0998388832F
:1005F00082EB91E027D58EE191E09983888386E2B2
:1006000091E09F838E8387E08A8787E090E09D83D7
:100610008C83CE018BD284EA91E014D58CE291E0F8
:100620009093A3018093A201DF91CF91089581114E
:1006300005C080910601909107010895E82FF0E030
:10064000F595E795EF56FF4FE49180FF0BC08E2F95
:1006500090E095958795959587959595879595952E
:10066000879503C0EF708E2F90E0909307018093E1
:1006700006010895CF93DF93EC018091790090E01B
:100680001F828A30910560F480E38C838D83809192
:1006900079004AE0BE016A5F7F4F90E024D716C020
:1006A0008436910558F480E38C83809179004AE088
:1006B000BE016B5F7F4F90E016D708C08091790034
:1006C0004AE0BE016C5F7F4F90E00DD7BE016C5FCA
:1006D0007F4F80E457DFEAE7F0E080818064808329
:1006E000DF91CF9108951F920F920FB60F921124B0
:1006F0000BB60F922F933F934F935F936F937F931C
:100700008F939F93AF93BF93EF93FF938AEB91E007
:1007100041D5FF91EF91BF91AF919F918F917F91C3
:100720006F915F914F913F912F910F900BBE0F9062
:100730000FBE0F901F9018958CEB91E083D482E34D
:1007400091E09093BB018093BA01EAE7F0E08FE873
:10075000808380E680937C0080818064808308951C
:10076000CF93DF93FC01248121110DC0EC018CD3C8
:1007700080FF05C080E090D381E08C8304C084EAD0
:100780008BD3CE0134D5DF91CF910895FFCFCF9396
:10079000DF9389EC91E056D4E7ECF1E0C8E3D1E0D7
:1007A000D183C083148284EC91E04CD4E2ECF1E07C
:1007B000D183C0831482DF91CF910895E8ECF0E0FB
:1007C000908195FFFDCF8093CE00E8ECF0E0808132
:1007D0008823ECF78091CE0008950895CF93882365
:1007E00021F0C82FFADFC150E9F7CF910895282FE3
:1007F000022E2EEF0694221FE8F3822F08952A98E6
:100800009FEF97B9660F660F862B88B9179AE5DFB9
:1008100017980895CF93DF93C82FD62F807FEFDFEF
:100820006D2F8C2F8295807FEADFDF91CF91089525
:10083000CF932A989FE097B98260880F880F88B974
:10084000179ACBDF1798C6B1179AC7DF179886B1EA
:1008500082958F70C07F8C2BCF910895CF93DF93BB
:10086000CAECD0E098819E7F98832A989FEF97B931
:1008700088B92A9A862FB2DF8881816088832A9876
:1008800088B1837F88B980E099DFDF91CF910895A7
:100890002A989FEF97B988B92A9A862F8FDF2A98CE
:1008A0000895CF936091CD01C62FCF7187709FDFE0
:1008B000682F6C2B6093CD0180E4EADFCF9108951F
:1008C00087786091CC016877682B6093CC0180E6D3
:1008D000DFCF0895FC0180859185019691878087FF
:1008E0002285222309F440C0883E934081F584810B
:1008F0009581DC01AA0FBB1FA352BE4F2D913C91E5
:10090000468157812417350748F4880F991FDC0169
:10091000A352BE4F2F5F3F4F2D933C93848195810F
:10092000DC01AA0FBB1FA352BE4F2D913C91468103
:1009300057814217530748F4880F991FDC01A352CF
:10094000BE4F215031092D933C9311861086A4810E
:10095000B58186819781AA0FBB1FA352BE4F8D938D
:100960009C93892B09F012860895CF93DF93EC01B5
:100970008C8991E0980F892F87708C8B92DF9C89EE
:10098000E92FF0E03296EE0FFF1FEC0FFD1F808184
:100990009181009751F090939B0080939A00E0E939
:1009A000F0E08081806280830BC080E096E39093CA
:1009B0009B0080939A00E0E9F0E080818F7D808346
:1009C000DF91CF9108951F920F920FB60F921124CD
:1009D0000BB60F922F933F934F935F936F937F9339
:1009E0008F939F93AF93BF93EF93FF9389ED91E024
:1009F000D1D3FF91EF91BF91AF919F918F917F9153
:100A00006F915F914F913F912F910F900BBE0F907F
:100A10000FBE0F901F9018958BED91E013D3E9ED69
:100A2000F1E08EE391E091838083279A80E096E362
:100A300090939B0080939A00A1E7B0E08C91846032
:100A40008C931782168215821482148A138612865A
:100A5000118610861786168615861486138A128AC2
:100A6000118A108A80ED91E0EDD2EEECF1E084E4A1
:100A700091E09183808312860895CF93DF93EC01F8
:100A8000688579856115710519F06E5F7F4F02C029
:100A900060E070E0CE010496E2D20097C9F00297C0
:100AA000998788870097B1F0FC018481958101972F
:100AB00095838483892B49F488859985DC01ED91A0
:100AC000FC910190F081E02D0995CE0190D302C0F8
:100AD00019861886DF91CF9108951F920F920FB655
:100AE0000F9211240BB60F922F933F934F935F9366
:100AF0006F937F938F939F93AF93BF93EF93FF93E6
:100B000080EF91E047D3FF91EF91BF91AF919F911B
:100B10008F917F916F915F914F913F912F910F90A6
:100B20000BBE0F900FBE0F901F901895BC016E5F0B
:100B30007F4F84EF91E0B1C20895CF93DF93EC0132
:100B4000BC016E5F7F4F84EF91E0D0D2009779F0C7
:100B50009C012250310959F08091F8019091F901DE
:100B6000C817D90721F43093F9012093F801DF91D8
:100B7000CF910895CF93DF9382EF91E063D2C0EFDE
:100B8000D1E08AE491E09983888384EF91E05ED29A
:100B90001986188683E08093900089E18093910004
:100BA00080E09CE69093990080939800E1E7F0E064
:100BB000808181608083DF91CF910895EF92FF92D1
:100BC0000F931F93CF93DF937C018B0150E0FA01C9
:100BD0003197E60FF71F9C01ADECBCEC2BD3EC0179
:100BE000D695C795D695C795D695C7959E01220FE0
:100BF000331FCE01880F991F880F991F880F991FE7
:100C0000820F931F9701281B390BC901805D8083D8
:100C1000425051093AF178012097F1F09E01ADEC74
:100C2000BCEC08D3AC01569547955695479556951B
:100C300047959A01220F331FCA01880F991F880F09
:100C4000991F880F991F820F931F9E01281B390B34
:100C500090E3920FEA0101C090E231979083EE1584
:100C6000FF05D1F6CD2B19F08AE2F8018083DF91E0
:100C7000CF911F910F91FF90EF900895CF92DF9247
:100C8000EF92FF920F931F93CF93DF93EC01B8DAAB
:100C90008C01B9DA6EE18CECE1DD88A7C8DC08973D
:100CA0007C016EE18CEADADD89A781E090E0F2DA7E
:100CB0006C01FC01108689A59ADDF60120E030E088
:100CC000682F70E0AB01022E02C0559547950A943B
:100CD000E2F740FD02C090E301C091E391932F5FE2
:100CE0003F4F2830310571F7B60180E04BDC6AA137
:100CF0007BA182E3869F9001879F300D11244CA138
:100D000058A18C8D9D8D8E0D9F1D281739070CF4D1
:100D1000C901319521953109821793070CF4C90156
:100D20009D8F8C8F2E8D3F8DF701E21BF30B9F0162
:100D3000FF8EEE8E5E9DF0015F9DF00D11247727F2
:100D400066D2E60FF71F429F6001439FD00C11242B
:100D5000CE0EDF1E88A54BDDF8013896D80120E0C5
:100D600030E0682F70E0AB01022E02C05595479528
:100D70000A94E2F740FD02C09EE201C09AE292931B
:100D80002F5F3F4FEA17FB0771F7FF203CF4F19408
:100D9000E194F1088DE2F801818703C08BE2F8014C
:100DA000818741E0B801665F7F4FC70107DFDD2023
:100DB00044F4882799278C199D092DE2F80123878F
:100DC00004C08BE2F8018387C601B801645F7F4FDE
:100DD00044E0F4DE68897989CB018C199D0996017C
:100DE000260F371F2F3F310519F014F02FEF30E099
:100DF0008F3F910519F014F08FEF90E069013323D4
:100E000014F4C12CD12CC092B300992314F480E0C7
:100E100090E08093B400DF91CF911F910F91FF90EC
:100E2000EF90DF90CF9008951F920F920FB60F9220
:100E300011240BB60F922F933F934F935F936F93B1
:100E40007F938F939F93AF93BF93EF93FF9386B559
:100E500080930C028091840080930B028DE092E0DD
:100E600099D1FF91EF91BF91AF919F918F917F9118
:100E70006F915F914F913F912F910F900BBE0F900B
:100E80000FBE0F901F901895809136020895909391
:100E9000200280931F020895CF93C82F811106C0AE
:100EA00083E08093B00080E80BDD07C08370846826
:100EB00007DDC07FC360C093B000CF910895CF938A
:100EC000DF93EC018885882381F01092060210924E
:100ED0000502109208021092070286B580930A025A
:100EE000809184008093090218861F8289859A85E3
:100EF0008A30910560F480E38C838D838091790042
:100F00004AE0BE016A5F7F4F90E0EDD216C08436A2
:100F1000910558F480E38C83809179004AE0BE010A
:100F20006B5F7F4F90E0DFD208C0809179004AE08C
:100F3000BE016C5F7F4F90E0D6D2BE016C5F7F4FE9
:100F400080E020DB56B5409184002091050230916D
:100F500006028091070290910802280F391F250F81
:100F6000311D240F311D80910A02281B3109809107
:100F70000902281B310989859A852817390718F431
:100F8000CE0135D102C080E087DFDF91CF91089597
:100F900090932E0280932D020895909330028093B7
:100FA0002F02089590933202809331020895CF93D7
:100FB000DF938FE092E046D0CDE0D2E080E591E093
:100FC000998388831F8A1E8A1D8A1C8A1B8E1A8E0B
:100FD000198E188E1F8E1E8E1D8E1C8E579A569A35
:100FE000E0EBF0E093E0908387E08093B1008093A2
:100FF000810085BDA6EBB0E08C918F7D8C939083B2
:1010000080E85EDC80E88093B4008093B3001FA288
:101010001EA2E0E7F0E080818160808385E590E0BA
:10102000998B888B85E090E09B8B8A8B8CEF91E08D
:1010300009D086E591E09093FB018093FA01DF915E
:10104000CF910895FC01918380830895CF93DF931E
:10105000EC01F8DFDB83CA83DF91CF91089561153E
:10106000710509F4BC01FB01208131812817390782
:1010700019F480E090E00895822F932F0895FC01E9
:1010800080819181E817F90711F473836283DB0192
:101090008D939C93718360830895DC011296ED918A
:1010A000FC9113977183608313967C936E931297D0
:1010B000FB01918380830895DC01ED91FC911197F0
:1010C0008E179F0779F08081918111969C938E9362
:1010D0008A179B0721F413969C938E931297F183A2
:1010E000E08302C0E0E0F0E0CF010895CF93DF930A
:1010F000AC01FC0117C02617370799F4DF01EC019A
:101100002A813B812617370711F4FB83EA83EB0121
:10111000888199818D939C93798368838E2F9F2FEB
:1011200008C0F901208131814217530721F780E07F
:1011300090E0DF91CF9108950F931F93CF93DF93AA
:10114000EC018B0183DF1D830C831E82DF91CF9125
:101150001F910F910895FC012681222331F06E5FCB
:101160007F4F8FE392E08BCF08956E5F7F4F95CFD7
:101170000895CF93DF93EC0181E08E83CE019CDF55
:10118000009711F0029702C080E090E01E82DF918C
:10119000CF9108950F931F93CF93DF93BC0188E302
:1011A00092E0D9DF8091370281111CC081E08093E9
:1011B00037027894C8E3D2E08E01CE01DADF0097DF
:1011C00049F0DC01ED91FC910190F081E02D099551
:1011D000E801F3CF0C80DD81C02D209771F7F894E2
:1011E00010923702DF91CF911F910F910895BC01AA
:1011F0008FE392E0B0CF089560E070E08FE392E07B
:101200009BDF6FE372E088E392E096CF089597FB4F
:10121000072E16F4009406D077FD08D01AD007FCEC
:1012200005D03EF4909581959F4F089570956195F6
:101230007F4F0895A29FB001B39FC001A39F700D7F
:10124000811D1124911DB29F700D811D1124911DCE
:101250000895AA1BBB1B51E107C0AA1FBB1FA617FD
:10126000B70710F0A61BB70B881F991F5A95A9F74F
:1012700080959095BC01CD010895EE0FFF1F0024CD
:10128000001C0BBE0790F691E02D0994CF93DF93DD
:101290008230910510F482E090E0E0914802F091F4
:1012A000490220E030E0C0E0D0E0309711F1408109
:1012B000518148175907C0F04817590761F48281D6
:1012C0009381209719F09B838A832BC090934902C6
:1012D0008093480226C02115310519F042175307A3
:1012E00018F49A01BE01DF01EF010280F381E02DC5
:1012F000DCCF2115310509F1281B390B24303105CC
:1013000090F412968D919C9113976115710521F0BF
:10131000FB019383828304C0909349028093480227
:10132000FD01329644C0FD01E20FF31F81939193BA
:10133000225031092D933C933AC0209146023091BE
:101340004702232B41F42091020130910301309395
:10135000470220934602209100013091010121159E
:10136000310541F42DB73EB740910401509105017C
:10137000241B350BE0914602F0914702E217F30778
:10138000A0F42E1B3F0B2817390778F0AC014E5FF5
:101390005F4F2417350748F04E0F5F1F50934702E9
:1013A000409346028193919302C0E0E0F0E0CF01C8
:1013B000DF91CF9108950F931F93CF93DF93009701
:1013C00009F48CC0FC01329713821282009148020A
:1013D000109149020115110581F420813181820F9C
:1013E000931F20914602309147022817390779F55B
:1013F000F0934702E093460271C0D80140E050E00C
:10140000AE17BF0750F412962D913C911397AD0182
:101410002115310509F1D901F3CF9D01DA0133839B
:10142000228360817181860F971F8217930769F469
:10143000EC0128813981260F371F2E5F3F4F318302
:1014400020838A819B8193838283452B29F4F093A7
:101450004902E093480242C01396FC93EE93129720
:10146000ED01499159919E01240F351FE217F307B1
:1014700071F480819181840F951F029611969C933F
:101480008E938281938113969C938E931297E0E0C2
:10149000F0E0D80112968D919C911397009719F066
:1014A000F8018C01F6CF8D919C9198012E5F3F4FF2
:1014B000820F931F20914602309147022817390767
:1014C00069F4309729F4109249021092480202C040
:1014D000138212821093470200934602DF91CF914C
:1014E0001F910F910895BB274A3031F4992322F4BC
:1014F000BDE2909581959F4F01C0BB27FB01552709
:10150000AA27880F991FAA1FA41710F0A41B839560
:101510005051B9F7A05DAA3308F0A95DA1930097D7
:1015200079F7B111B1931192CB0100C0DC01FC013C
:10153000672F71917723E1F7329704C07C916D9307
:1015400070836291AE17BF07C8F30895F894FFCF78
:1015500000004A022000080000000000D600000041
:1015600000004C0100000000490100000000ED01F6
:10157000BC01FAFF00007D02000000003F020000F5
:1015800000003A0300000000B00300000000B504B2
:10159000000000006A04000000003D05000000009B
:0815A0003E06000000005F0799
:00000001FF
