S00F0000526F626F6361722E737265634D
S11300008FC00000D0C00000CEC00000CCC00000F3
S1130010CAC00000C8C00000C6C00000C4C00000C0
S1130020C2C00000C0C00000BEC000002BC700005A
S1130030BAC00000B8C00000B6C00000B4C00000E0
S1130040B2C00000B0C00000AEC00000ACC00000F0
S1130050AAC00000A8C00000A6C00000A4C0000000
S1130060A2C00000A0C000009EC000009CC0000010
S11300709AC0000098C0000096C0000094C0000020
S113008092C00000D2C400005AC500000801060C4A
S11300900018233534472566455926573488587740
S11300A0566B27383499276645AA6AAA37999988DE
S11300B0677B2839347A256645BB2B793488587791
S11300C056CC7CCC38CC7C9945BBBBBB7BAAAA99CB
S11300D0788F293A344B256645CC2957348858778C
S11300E056DD2D8D34BB296645AA6AAA37999988AD
S11300F067EE8EEE39EE8EAA45EE8EEE39BB8B7727
S113010056DDDDDD8DDDDDDD49CCCCCCCCBBBBAA41
S1130110890004017C0244033E05EC050A08330906
S113012011241FBECFEFD0E4DEBFCDBF099A0A9AD7
S11301300F9A229A539A549AECECF0E011821082AE
S113014083EC8093CA0088E18093C90011821082F5
S113015060E080E42AD360E080E627D311E0A0E0E9
S1130160B1E0EEEBF5E100E00BBF02C007900D92A9
S1130170A235B107D9F722E0A2E5B1E001C01D9292
S1130180A433B207E1F710E0C0E9D0E004C021973E
S1130190FE010E947409C938D107C9F7119A7894ED
S11301A04AD20C94DD0A2CCFCF93DF93EC0188E282
S11301B090E09D838C8361E08CE8DDD298A598273C
S11301C0D1F088A790FF17C080FF15C089A58111C1
S11301D00CC08BA59CA50FD78DA59EA511D78FA567
S11301E098A913D784EA8BD602C080E088D699A553
S11301F081E0892789A7DF91CF91089588E591E06F
S1130200089589E691E00895CF93DF9384E591E022
S11302104CD7C2E5D1E08CE091E0998388838BE0F0
S113022090E09CA78BA788E390E09EA78DA78CE322
S113023090E098AB8FA78BE090E0DDD68DA59EA5CE
S1130240DFD68FA598A9E1D680EA90E053D61AAA02
S113025019AA19A6E9E6F1E0A8E5B1E029E731E039
S113026080E281938D93E217F307D9F7C2E5D1E0D9
S113027085E08AA788E290E09D838C8361E08CE826
S11302807AD288A7CE0184D4DF91CF9108950895BE
S11302900C947D090895CF93DF93FC0123852111EC
S11302A002C0128626C0EC0180E04FD28823F4F00D
S11302B06C85623030F060E08B8539D281E08C87C8
S11302C002C08B8534D28D85813041F4EE85FF8563
S11302D0CF0101969F878E87E08107C0EE85FF8559
S11302E0CF0101969F878E87E491EB87CE01069616
S11302F0B1D7DF91CF910895CF93DF93EC018A8535
S1130300873051F482E08A8782E090E09D838C8379
S113031060E080E30CD23FC0CE0141D460E080E3D2
S1130320FBD188E7E8D160E080E3F6D182E3E3D152
S113033060E080E2F1D182E3DED160E088E2F7D1CF
S113034082E3D9D160E080E4F2D182E3D4D161E0E8
S113035085EAEDD182E3CFD160E080E4E8D182E3A5
S1130360CAD181E0F2D191E0853A09F490E0992371
S113037011F09A8710C082E08A878EEF8D871C86E1
S11303808DE890E09F878E87ECE8F0E0E491EB87BE
S1130390CE0106965FD7DF91CF910895DC011796C1
S11303A02C9117971596ED91FC91169714968C91B4
S11303B014979091990191112CC0AFE8B1E092E0AB
S11303C01A969C931A971D962C931D971F96FC932F
S11303D0EE931E97982F90951C969C93923010F054
S11303E0806811C0213041F4CF01019690939E01A1
S11303F080939D01808107C0CF01019690939E0157
S113040080939D01849180939A0185E991E022C7AC
S11304100895CD011FC708950F931F93CF93DF93C2
S1130420FC012581211102C0148236C0EC0180E058
S11304308CD188237CF16E81623058F060E08E01AB
S113044006501109F801838572D181E0F80184878F
S113045002C08D816CD18F81813071F4DE011697D9
S11304601E96ED91FC911F97CF0101961F969C93C8
S11304708E931E97E0810DC0DE0116971E96ED91B6
S1130480FC911F97CF0101961F969C938E931E9704
S1130490E491ED83CE01DED6DF91CF911F910F91D0
S11304A008959091990191111DC0EFE8F1E092E057
S11304B0928791E0958777876687982F90959487A0
S11304C0923010F0806808C0CB01019690939E0191
S11304D080939D01FB01808180939A0185E991E0DD
S11304E0B9C60895E7E8F1E084837683658381E003
S11304F08783CF01AFC60895CF93DF9381E991E05D
S1130500D4D5CFE8D1E082E191E09983888387E96B
S113051091E0CBD588E191E09983888380E291E0F2
S11305209F838E8387E08A8787E090E09D838C8316
S1130530CE012ED389E891E0B8D586E291E090937C
S1130540880180938701DF91CF910895811105C0BF
S113055080910601909107010895E82FF0E0F59548
S1130560E795EF56FF4FE49180FF0BC08E2F90E08C
S1130570959587959595879595958795959587955F
S113058003C0EF708E2F90E09093070180930601D3
S11305900895CF93DF93FC01218521110EC0EC0156
S11305A0A6D4B2D080FF05C080E0A9D481E08987B9
S11305B004C084EAA4D4CE014DD6DF91CF9108952E
S11305C0CF93DF93FC012681211119C0EC018FD454
S11305D080FF11C08C819D8101969D838C8302973D
S11305E029F480E08CD481E08E8309C084EA87D426
S11305F0CE0130D604C084EA82D4CE012BD6DF915A
S1130600CF91089560E070E080E49FE197D162E0CB
S113061070E080E797E192D163E070E080E596E4D2
S11306208DD18AE090E05CD161E070E089E995E1E8
S113063085D18CC108958CEE9AE36FD18DEA91E057
S11306400ED6E0DF8AE090E04BD186EA91E007D64F
S113065084EA55D48AE090E043D18FE991E0FFD554
S11306608AE090E03DD186E490E03CD48CE247D42B
S11306708AE090E035D184EA42D489E090E030D138
S113068080E03DD4B8D1FFCFCF93DF938FEA91E0E0
S11306900CD5EDEAF1E08CE291E091838083118640
S11306A01682158288EA91E000D5E6EAF1E0C2E319
S11306B0D1E0D183C08316821582148281EA91E04D
S11306C0F4D4EFE9F1E0D183C08316821582148259
S11306D0DF91CF910895E8ECF0E0908195FFFDCF94
S11306E08093CE00E8ECF0E080818823ECF78091E1
S11306F0CE0008950895CF93882321F0C82FFADF00
S1130700C150E9F7CF910895282F022E2EEF0694B9
S1130710221FE8F3822F08952A989FEF97B9660F56
S1130720660F862B88B9179AE5DF17980895CF933B
S1130730DF93C82FD62F807FEFDF6D2F8C2F82950C
S1130740807FEADFDF91CF910895CF932A989FE0CD
S113075097B98260880F880F88B9179ACBDF1798EA
S1130760C6B1179AC7DF179886B182958F70C07F7C
S11307708C2BCF910895CF93DF93CAECD0E098816E
S11307809E7F98832A989FEF97B988B92A9A862FD3
S1130790B2DF8881816088832A9888B1837F88B991
S11307A080E099DFDF91CF9108952A989FEF97B960
S11307B088B92A9A862F8FDF2A980895CF9360915B
S11307C0B801C62FCF7187709FDF682F6C2B6093A1
S11307D0B80180E4EADFCF91089587786091B7018A
S11307E06877682B6093B70180E6DFCF0895FC013A
S11307F0808591850196918780872285222309F43B
S113080040C0883E934081F584819581DC01AA0F24
S1130810BB1FA853BE4F2D913C914681578124178D
S1130820350748F4880F991FDC01A853BE4F2F5F8A
S11308303F4F2D933C9384819581DC01AA0FBB1F0C
S1130840A853BE4F2D913C914681578142175307BF
S113085048F4880F991FDC01A853BE4F2150310979
S11308602D933C9311861086A481B581868197814E
S1130870AA0FBB1FA853BE4F8D939C93892B09F0DD
S113088012860895CF93DF93EC018C8991E0980F41
S1130890892F87708C8B92DF9C89E92FF0E0329648
S11308A0EE0FFF1FEC0FFD1F80819181009751F027
S11308B090939B0080939A00E0E9F0E0808180624D
S11308C080830BC080E096E390939B0080939A0012
S11308D0E0E9F0E080818F7D8083DF91CF910895FE
S11308E00F931F93CF93DF9320E931E0829F800120
S11308F0839F100D929F100D11241016110644F4BD
S1130900C0E0D0E08FEFF7DE2196C017D107D1F712
S1130910DF91CF911F910F910895E4ECF1E093875B
S1130920828720E43FE13583248328ED39E537834A
S1130930268388589341918780870895FB01EE0FA1
S1130940FF1FE853FE4F918380830895CF93DF9375
S11309508AE090E0C5DFC4ECD1E088EF9AE29987A1
S113096088878AE090E0BCDF8CE998E19B878A87DE
S11309708AE090E0B5DF8E819F81883223E292077E
S113098058F402969F838E838FEFB5DE8E819F810C
S1130990883223E29207A8F38091C8019091C9019B
S11309A0803526E4920768F4C4ECD1E002969D8376
S11309B08C838FEFA0DE8C819D81803526E49207A5
S11309C0A8F3C4ECD1E088ED99E59F838E8381E0A0
S11309D090E086DF80E797E19987888781E090E05F
S11309E07FDF80E596E49B878A8781E090E078DF6B
S11309F0DF91CF910895CF93DF93C4ECD1E080EBE6
S1130A0096E39F838E8388EF9AE2998788878CE99F
S1130A1098E19B878A878AE090E062DF80E49FE127
S1130A209D838C83DF91CF9108951F920F920FB60F
S1130A300F9211240BB60F922F933F934F935F9312
S1130A406F937F938F939F93AF93BF93EF93FF9392
S1130A5084EC91E0D2D3FF91EF91BF91AF919F913C
S1130A608F917F916F915F914F913F912F910F9053
S1130A700BBE0F900FBE0F901F90189586EC91E05F
S1130A8014D3E4ECF1E088E391E091838083279A26
S1130A9080E096E390939B0080939A00A1E7B0E0F6
S1130AA08C9184608C931782168215821482148A26
S1130AB01386128611861086178616861586148666
S1130AC0138A128A118A108A8BEB91E0EED2E9EB39
S1130AD0F1E08EE391E09183808312860895CF93B1
S1130AE0DF93EC01688579856115710519F06E5FF6
S1130AF07F4F02C060E070E0CE010496E3D200971D
S1130B00C9F00297998788870097B1F0FC01848126
S1130B109581019795838483892B49F488859985E8
S1130B20DC01ED91FC910190F081E02D0995CE015D
S1130B3091D302C019861886DF91CF9108951F9230
S1130B400F920FB60F9211240BB60F922F933F936F
S1130B504F935F936F937F938F939F93AF93BF93C1
S1130B60EF93FF938BED91E048D3FF91EF91BF9109
S1130B70AF919F918F917F916F915F914F913F9131
S1130B802F910F900BBE0F900FBE0F901F901895D2
S1130B90BC016E5F7F4F8FED91E0B2C20895CF9399
S1130BA0DF93EC01BC016E5F7F4F8FED91E0D1D2FA
S1130BB0009779F09C012250310959F08091E301AA
S1130BC09091E401C817D90721F43093E4012093EC
S1130BD0E301DF91CF910895CF93DF938DED91E001
S1130BE064D2CBEDD1E084E491E0998388838FEDE6
S1130BF091E05FD21986188683E08093900089E1A2
S1130C008093910080E09CE69093990080939800F3
S1130C10E1E7F0E0808181608083DF91CF910895E6
S1130C20EF92FF920F931F93CF93DF937C018B017D
S1130C3050E0FA013197E60FF71F9C01ADECBCECD4
S1130C4030D3EC01D695C795D695C795D695C7955B
S1130C509E01220F331FCE01880F991F880F991F01
S1130C60880F991F820F931F9701281B390BC90105
S1130C70805D8083425051093AF178012097F1F068
S1130C809E01ADECBCEC0DD3AC0156954795569541
S1130C904795569547959A01220F331FCA01880F2D
S1130CA0991F880F991F880F991F820F931F9E0108
S1130CB0281B390B90E3920FEA0101C090E23197AF
S1130CC09083EE15FF05D1F6CD2B19F08AE2F801D9
S1130CD08083DF91CF911F910F91FF90EF90089542
S1130CE0CF92DF92EF92FF920F931F93CF93DF93F4
S1130CF0EC0184DA8C0185DA6EE18CEC3CDD88A7AA
S1130D0025DC08977C0181E090E0C2DA6C01FC01EB
S1130D10108688A5F9DCF60120E030E0682F70E049
S1130D20AB01022E02C0559547950A94E2F740FDA7
S1130D3002C090E301C091E391932F5F3F4F2830AD
S1130D40310571F7B60180E0ACDB6AA17BA182E3D7
S1130D50869F9001879F300D11244CA158A18C8D42
S1130D609D8D8E0D9F1D281739070CF4C9013195EF
S1130D7021953109821793070CF4C9019D8F8C8F3B
S1130D802E8D3F8DF701E21BF30B9F01FF8EEE8E3C
S1130D905E9DF0015F9DF00D112477276FD2E60F61
S1130DA0F71F429F6001439FD00C1124CE0EDF1E1B
S1130DB088A5AADCF8013896D80120E030E0682F35
S1130DC070E0AB01022E02C0559547950A94E2F7F4
S1130DD040FD02C09EE201C09AE292932F5F3F4F12
S1130DE0EA17FB0771F7FF203CF4F194E194F10852
S1130DF08DE2F801818703C08BE2F801818741E02D
S1130E00B801665F7F4FC7010BDFDD2044F48827FC
S1130E1099278C199D092DE2F801238704C08BE2E0
S1130E20F8018387C601B801645F7F4F44E0F8DEB0
S1130E3068897989CB018C199D099601260F371F82
S1130E402F3F310519F014F02FEF30E08F3F91055B
S1130E5019F014F08FEF90E06901332314F4C12CDE
S1130E60D12CC092B300992314F480E090E08093D5
S1130E70B400DF91CF911F910F91FF90EF90DF901D
S1130E80CF9008951F920F920FB60F9211240BB6B4
S1130E900F922F933F934F935F936F937F938F930F
S1130EA09F93AF93BF93EF93FF9386B58093F7011E
S1130EB0809184008093F60188EF91E09ED1FF91A8
S1130EC0EF91BF91AF919F918F917F916F915F91BE
S1130ED04F913F912F910F900BBE0F900FBE0F902B
S1130EE01F901895909309028093080208958091A9
S1130EF02002089590930B0280930A020895CF93E1
S1130F00C82F811106C083E08093B00080E865DCBF
S1130F1007C08370846861DCC07FC360C093B00085
S1130F20CF910895CF93DF93EC018885882381F0D6
S1130F301092F1011092F0011092F3011092F2015B
S1130F4086B58093F501809184008093F40118861E
S1130F501F8289859A858A30910560F480E38C83A9
S1130F608D83809179004AE0BE016A5F7F4F90E0F3
S1130F70F1D216C08436910558F480E38C838091B5
S1130F8079004AE0BE016B5F7F4F90E0E3D208C076
S1130F90809179004AE0BE016C5F7F4F90E0DAD225
S1130FA0BE016C5F7F4F80E07CDA56B540918400CF
S1130FB02091F0013091F1018091F2019091F301BF
S1130FC0280F391F250F311D240F311D8091F50184
S1130FD0281B31098091F401281B310989859A85E0
S1130FE02817390718F4CE0135D102C080E087DF15
S1130FF0DF91CF9108959093190280931802089578
S113100090931B0280931A02089590931D0280937B
S11310101C020895CF93DF938AEF91E046D0C8EF86
S1131020D1E08AE491E0998388831F8A1E8A1D8A0D
S11310301C8A1B8E1A8E198E188E1F8E1E8E1D8E64
S11310401C8E579A569AE0EBF0E093E0908387E089
S11310508093B1008093810085BDA6EBB0E08C91B4
S11310608F7D8C93908380E8B8DB80E88093B40014
S11310708093B3001FA21EA2E0E7F0E080818160AC
S113108080838CE390E0998B888B85E090E09B8B48
S11310908A8B87EE91E009D080E591E09093E60198
S11310A08093E501DF91CF910895FC0191838083C2
S11310B00895CF93DF93EC01F8DFDB83CA83DF91DC
S11310C0CF9108956115710509F4BC01FB012081DC
S11310D031812817390719F480E090E00895822FB0
S11310E0932F0895FC0180819181E817F90711F489
S11310F073836283DB018D939C9371836083089572
S1131100DC011296ED91FC91139771836083139621
S11311107C936E931297FB01918380830895DC0185
S1131120ED91FC9111978E179F0779F08081918141
S113113011969C938E938A179B0721F413969C9384
S11311408E931297F183E08302C0E0E0F0E0CF01D8
S11311500895CF93DF93AC01FC0117C0261737071E
S113116099F4DF01EC012A813B812617370711F43A
S1131170FB83EA83EB01888199818D939C93798326
S113118068838E2F9F2F08C0F90120813181421777
S1131190530721F780E090E0DF91CF9108950F93FA
S11311A01F93CF93DF93EC018B0183DF1D830C83AB
S11311B01E82DF91CF911F910F910895FC0126812A
S11311C0222331F06E5F7F4F89E292E08BCF089546
S11311D06E5F7F4F95CF0895CF93DF93EC0181E04D
S11311E08E83CE019CDF009711F0029702C080E04D
S11311F090E01E82DF91CF9108950F931F93CF93B8
S1131200DF93BC0182E292E0D9DF80912102811157
S11312101CC081E0809321027894C2E2D2E08E0166
S1131220CE01DADF009749F0DC01ED91FC910190E9
S1131230F081E02D0995E801F3CF0C80DD81C02D0C
S1131240209771F7F89410922102DF91CF911F91AA
S11312500F910895BC0189E292E0B0CF0895F8940B
S1131260CCDF7894089560E070E089E292E097DF43
S113127069E272E082E292E092CF089597FB072E32
S113128016F4009406D077FD08D01AD007FC05D0D8
S11312903EF4909581959F4F0895709561957F4F89
S11312A00895A29FB001B39FC001A39F700D811D3B
S11312B01124911DB29F700D811D1124911D08955B
S11312C0AA1BBB1B51E107C0AA1FBB1FA617B70768
S11312D010F0A61BB70B881F991F5A95A9F7809584
S11312E09095BC01CD010895EE0FFF1F0024001C52
S11312F00BBE0790F691E02D0994CF93DF938230D3
S1131300910510F482E090E0E0913202F091330212
S113131020E030E0C0E0D0E0309711F1408151810D
S113132048175907C0F04817590761F4828193811F
S1131330209719F09B838A832BC090933302809368
S1131340320226C02115310519F04217530718F44B
S11313509A01BE01DF01EF010280F381E02DDCCFB1
S11313602115310509F1281B390B2430310590F47E
S113137012968D919C9113976115710521F0FB01D3
S11313809383828304C09093330280933202FD01DD
S1131390329644C0FD01E20FF31F819391932250D2
S11313A031092D933C933AC020913002309131029F
S11313B0232B41F420910201309103013093310237
S11313C02093300220910001309101012115310553
S11313D041F42DB73EB74091040150910501241BFF
S11313E0350BE0913002F0913102E217F307A0F4DB
S11313F02E1B3F0B2817390778F0AC014E5F5F4F67
S11314002417350748F04E0F5F1F50933102409365
S113141030028193919302C0E0E0F0E0CF01DF91CC
S1131420CF9108950F931F93CF93DF93009709F4FF
S11314308CC0FC0132971382128200913202109107
S113144033020115110581F420813181820F931F2C
S113145020913002309131022817390779F5F09341
S11314603102E093300271C0D80140E050E0AE1781
S1131470BF0750F412962D913C911397AD0121159D
S1131480310509F1D901F3CF9D01DA0133832283B8
S113149060817181860F971F8217930769F4EC01AD
S11314A028813981260F371F2E5F3F4F31832083D8
S11314B08A819B8193838283452B29F4F0933302A1
S11314C0E093320242C01396FC93EE931297ED011F
S11314D0499159919E01240F351FE217F30771F4C6
S11314E080819181840F951F029611969C938E930F
S11314F08281938113969C938E931297E0E0F0E09F
S1131500D80112968D919C911397009719F0F801C8
S11315108C01F6CF8D919C9198012E5F3F4F820FE5
S1131520931F20913002309131022817390769F452
S1131530309729F4109233021092320202C01382BF
S113154012821093310200933002DF91CF911F91E8
S11315500F910895BB274A3031F4992322F4BDE258
S1131560909581959F4F01C0BB27FB015527AA2762
S1131570880F991FAA1FA41710F0A41B839550511C
S1131580B9F7A05DAA3308F0A95DA193009779F794
S1131590B111B1931192CB0100C0DC01FC01672FA2
S11315A071917723E1F7329704C07C916D93708336
S11115B06291AE17BF07C8F30895F894FFCFF9
S11315BE000034022000080000000000D4000000E7
S11315CE00004701000000007C014B01FAFF0000FF
S11315DE0C0200000000CE0100000000C902000051
S11315EE0000E00200000000420400000000F703C7
S11315FE000000006F0500000000700600000000EF
S105160E92073D
S9030000FC
